{
  "address": "0xBa8a9Cbe584345Fa0a328Dc34D95755C1bA64BF5",
  "abi": [
    {
      "inputs": [
        {
          "internalType": "string",
          "name": "name_",
          "type": "string"
        },
        {
          "internalType": "string",
          "name": "symbol_",
          "type": "string"
        },
        {
          "internalType": "address",
          "name": "collateral_address_",
          "type": "address"
        },
        {
          "internalType": "address",
          "name": "collateral_aave_address_",
          "type": "address"
        },
        {
          "internalType": "address",
          "name": "aave_lending_pool_address_",
          "type": "address"
        },
        {
          "internalType": "address",
          "name": "wmatic_address_",
          "type": "address"
        },
        {
          "internalType": "address",
          "name": "uniswap_router_address_",
          "type": "address"
        },
        {
          "internalType": "address",
          "name": "aave_incentives_address_",
          "type": "address"
        }
      ],
      "stateMutability": "nonpayable",
      "type": "constructor"
    },
    {
      "anonymous": false,
      "inputs": [
        {
          "indexed": true,
          "internalType": "address",
          "name": "owner",
          "type": "address"
        },
        {
          "indexed": true,
          "internalType": "address",
          "name": "spender",
          "type": "address"
        },
        {
          "indexed": false,
          "internalType": "uint256",
          "name": "value",
          "type": "uint256"
        }
      ],
      "name": "Approval",
      "type": "event"
    },
    {
      "anonymous": false,
      "inputs": [
        {
          "indexed": false,
          "internalType": "uint256",
          "name": "claimed",
          "type": "uint256"
        }
      ],
      "name": "ClaimedRewards",
      "type": "event"
    },
    {
      "anonymous": false,
      "inputs": [
        {
          "indexed": false,
          "internalType": "uint256",
          "name": "wmatic",
          "type": "uint256"
        },
        {
          "indexed": false,
          "internalType": "uint256",
          "name": "collateral",
          "type": "uint256"
        }
      ],
      "name": "HarvestedMatic",
      "type": "event"
    },
    {
      "anonymous": false,
      "inputs": [
        {
          "indexed": false,
          "internalType": "address",
          "name": "owner",
          "type": "address"
        },
        {
          "indexed": false,
          "internalType": "uint256",
          "name": "collateral",
          "type": "uint256"
        },
        {
          "indexed": false,
          "internalType": "uint256",
          "name": "starting_ratio",
          "type": "uint256"
        }
      ],
      "name": "Initialized",
      "type": "event"
    },
    {
      "anonymous": false,
      "inputs": [
        {
          "indexed": false,
          "internalType": "address",
          "name": "operator",
          "type": "address"
        },
        {
          "indexed": false,
          "internalType": "uint256",
          "name": "markup",
          "type": "uint256"
        }
      ],
      "name": "MarkupUpdated",
      "type": "event"
    },
    {
      "anonymous": false,
      "inputs": [
        {
          "indexed": false,
          "internalType": "address",
          "name": "to",
          "type": "address"
        },
        {
          "indexed": false,
          "internalType": "uint256",
          "name": "collateralAmount",
          "type": "uint256"
        },
        {
          "indexed": false,
          "internalType": "uint256",
          "name": "tokenAmount",
          "type": "uint256"
        }
      ],
      "name": "Minted",
      "type": "event"
    },
    {
      "anonymous": false,
      "inputs": [
        {
          "indexed": true,
          "internalType": "bytes32",
          "name": "role",
          "type": "bytes32"
        },
        {
          "indexed": true,
          "internalType": "bytes32",
          "name": "previousAdminRole",
          "type": "bytes32"
        },
        {
          "indexed": true,
          "internalType": "bytes32",
          "name": "newAdminRole",
          "type": "bytes32"
        }
      ],
      "name": "RoleAdminChanged",
      "type": "event"
    },
    {
      "anonymous": false,
      "inputs": [
        {
          "indexed": true,
          "internalType": "bytes32",
          "name": "role",
          "type": "bytes32"
        },
        {
          "indexed": true,
          "internalType": "address",
          "name": "account",
          "type": "address"
        },
        {
          "indexed": true,
          "internalType": "address",
          "name": "sender",
          "type": "address"
        }
      ],
      "name": "RoleGranted",
      "type": "event"
    },
    {
      "anonymous": false,
      "inputs": [
        {
          "indexed": true,
          "internalType": "bytes32",
          "name": "role",
          "type": "bytes32"
        },
        {
          "indexed": true,
          "internalType": "address",
          "name": "account",
          "type": "address"
        },
        {
          "indexed": true,
          "internalType": "address",
          "name": "sender",
          "type": "address"
        }
      ],
      "name": "RoleRevoked",
      "type": "event"
    },
    {
      "anonymous": false,
      "inputs": [
        {
          "indexed": true,
          "internalType": "address",
          "name": "from",
          "type": "address"
        },
        {
          "indexed": true,
          "internalType": "address",
          "name": "to",
          "type": "address"
        },
        {
          "indexed": false,
          "internalType": "uint256",
          "name": "value",
          "type": "uint256"
        }
      ],
      "name": "Transfer",
      "type": "event"
    },
    {
      "anonymous": false,
      "inputs": [
        {
          "indexed": false,
          "internalType": "address",
          "name": "to",
          "type": "address"
        },
        {
          "indexed": false,
          "internalType": "uint256",
          "name": "collateralAmount",
          "type": "uint256"
        },
        {
          "indexed": false,
          "internalType": "uint256",
          "name": "tokenAmount",
          "type": "uint256"
        }
      ],
      "name": "Withdrawal",
      "type": "event"
    },
    {
      "inputs": [],
      "name": "AAVE_INCENTIVES_ADDRESS",
      "outputs": [
        {
          "internalType": "address",
          "name": "",
          "type": "address"
        }
      ],
      "stateMutability": "view",
      "type": "function"
    },
    {
      "inputs": [],
      "name": "AAVE_LENDING_POOL_ADDRESS",
      "outputs": [
        {
          "internalType": "address",
          "name": "",
          "type": "address"
        }
      ],
      "stateMutability": "view",
      "type": "function"
    },
    {
      "inputs": [],
      "name": "COLLATERAL_AAVE_ADDRESS",
      "outputs": [
        {
          "internalType": "address",
          "name": "",
          "type": "address"
        }
      ],
      "stateMutability": "view",
      "type": "function"
    },
    {
      "inputs": [],
      "name": "COLLATERAL_ADDRESS",
      "outputs": [
        {
          "internalType": "address",
          "name": "",
          "type": "address"
        }
      ],
      "stateMutability": "view",
      "type": "function"
    },
    {
      "inputs": [],
      "name": "DEFAULT_ADMIN_ROLE",
      "outputs": [
        {
          "internalType": "bytes32",
          "name": "",
          "type": "bytes32"
        }
      ],
      "stateMutability": "view",
      "type": "function"
    },
    {
      "inputs": [],
      "name": "DOMAIN_SEPARATOR",
      "outputs": [
        {
          "internalType": "bytes32",
          "name": "",
          "type": "bytes32"
        }
      ],
      "stateMutability": "view",
      "type": "function"
    },
    {
      "inputs": [],
      "name": "MARKUP_DECIMALS",
      "outputs": [
        {
          "internalType": "uint8",
          "name": "",
          "type": "uint8"
        }
      ],
      "stateMutability": "view",
      "type": "function"
    },
    {
      "inputs": [],
      "name": "MARKUP_ROLE",
      "outputs": [
        {
          "internalType": "bytes32",
          "name": "",
          "type": "bytes32"
        }
      ],
      "stateMutability": "view",
      "type": "function"
    },
    {
      "inputs": [],
      "name": "REWARDS_ROLE",
      "outputs": [
        {
          "internalType": "bytes32",
          "name": "",
          "type": "bytes32"
        }
      ],
      "stateMutability": "view",
      "type": "function"
    },
    {
      "inputs": [],
      "name": "UNISWAP_ROUTER_ADDRESS",
      "outputs": [
        {
          "internalType": "address",
          "name": "",
          "type": "address"
        }
      ],
      "stateMutability": "view",
      "type": "function"
    },
    {
      "inputs": [],
      "name": "WMATIC_ADDRESS",
      "outputs": [
        {
          "internalType": "address",
          "name": "",
          "type": "address"
        }
      ],
      "stateMutability": "view",
      "type": "function"
    },
    {
      "inputs": [
        {
          "internalType": "address",
          "name": "owner",
          "type": "address"
        },
        {
          "internalType": "address",
          "name": "spender",
          "type": "address"
        }
      ],
      "name": "allowance",
      "outputs": [
        {
          "internalType": "uint256",
          "name": "",
          "type": "uint256"
        }
      ],
      "stateMutability": "view",
      "type": "function"
    },
    {
      "inputs": [
        {
          "internalType": "address",
          "name": "spender",
          "type": "address"
        },
        {
          "internalType": "uint256",
          "name": "amount",
          "type": "uint256"
        }
      ],
      "name": "approve",
      "outputs": [
        {
          "internalType": "bool",
          "name": "",
          "type": "bool"
        }
      ],
      "stateMutability": "nonpayable",
      "type": "function"
    },
    {
      "inputs": [
        {
          "internalType": "address",
          "name": "account",
          "type": "address"
        }
      ],
      "name": "balanceOf",
      "outputs": [
        {
          "internalType": "uint256",
          "name": "",
          "type": "uint256"
        }
      ],
      "stateMutability": "view",
      "type": "function"
    },
    {
      "inputs": [
        {
          "internalType": "uint256",
          "name": "amount",
          "type": "uint256"
        }
      ],
      "name": "burn",
      "outputs": [],
      "stateMutability": "nonpayable",
      "type": "function"
    },
    {
      "inputs": [
        {
          "internalType": "address",
          "name": "account",
          "type": "address"
        },
        {
          "internalType": "uint256",
          "name": "amount",
          "type": "uint256"
        }
      ],
      "name": "burnFrom",
      "outputs": [],
      "stateMutability": "nonpayable",
      "type": "function"
    },
    {
      "inputs": [],
      "name": "buyingPrice",
      "outputs": [
        {
          "internalType": "uint256",
          "name": "",
          "type": "uint256"
        }
      ],
      "stateMutability": "view",
      "type": "function"
    },
    {
      "inputs": [],
      "name": "claimAaveRewards",
      "outputs": [],
      "stateMutability": "nonpayable",
      "type": "function"
    },
    {
      "inputs": [],
      "name": "collateralBalance",
      "outputs": [
        {
          "internalType": "uint256",
          "name": "",
          "type": "uint256"
        }
      ],
      "stateMutability": "view",
      "type": "function"
    },
    {
      "inputs": [],
      "name": "collateralPrice",
      "outputs": [
        {
          "internalType": "uint256",
          "name": "",
          "type": "uint256"
        }
      ],
      "stateMutability": "view",
      "type": "function"
    },
    {
      "inputs": [],
      "name": "collateralRatio",
      "outputs": [
        {
          "internalType": "uint256",
          "name": "",
          "type": "uint256"
        }
      ],
      "stateMutability": "view",
      "type": "function"
    },
    {
      "inputs": [],
      "name": "decimals",
      "outputs": [
        {
          "internalType": "uint8",
          "name": "",
          "type": "uint8"
        }
      ],
      "stateMutability": "view",
      "type": "function"
    },
    {
      "inputs": [
        {
          "internalType": "address",
          "name": "spender",
          "type": "address"
        },
        {
          "internalType": "uint256",
          "name": "subtractedValue",
          "type": "uint256"
        }
      ],
      "name": "decreaseAllowance",
      "outputs": [
        {
          "internalType": "bool",
          "name": "",
          "type": "bool"
        }
      ],
      "stateMutability": "nonpayable",
      "type": "function"
    },
    {
      "inputs": [
        {
          "internalType": "bytes32",
          "name": "role",
          "type": "bytes32"
        }
      ],
      "name": "getRoleAdmin",
      "outputs": [
        {
          "internalType": "bytes32",
          "name": "",
          "type": "bytes32"
        }
      ],
      "stateMutability": "view",
      "type": "function"
    },
    {
      "inputs": [
        {
          "internalType": "bytes32",
          "name": "role",
          "type": "bytes32"
        },
        {
          "internalType": "address",
          "name": "account",
          "type": "address"
        }
      ],
      "name": "grantRole",
      "outputs": [],
      "stateMutability": "nonpayable",
      "type": "function"
    },
    {
      "inputs": [],
      "name": "harvestMaticIntoToken",
      "outputs": [],
      "stateMutability": "nonpayable",
      "type": "function"
    },
    {
      "inputs": [
        {
          "internalType": "bytes32",
          "name": "role",
          "type": "bytes32"
        },
        {
          "internalType": "address",
          "name": "account",
          "type": "address"
        }
      ],
      "name": "hasRole",
      "outputs": [
        {
          "internalType": "bool",
          "name": "",
          "type": "bool"
        }
      ],
      "stateMutability": "view",
      "type": "function"
    },
    {
      "inputs": [
        {
          "internalType": "address",
          "name": "spender",
          "type": "address"
        },
        {
          "internalType": "uint256",
          "name": "addedValue",
          "type": "uint256"
        }
      ],
      "name": "increaseAllowance",
      "outputs": [
        {
          "internalType": "bool",
          "name": "",
          "type": "bool"
        }
      ],
      "stateMutability": "nonpayable",
      "type": "function"
    },
    {
      "inputs": [
        {
          "internalType": "uint256",
          "name": "collateral",
          "type": "uint256"
        },
        {
          "internalType": "uint256",
          "name": "starting_ratio",
          "type": "uint256"
        }
      ],
      "name": "initialize",
      "outputs": [],
      "stateMutability": "nonpayable",
      "type": "function"
    },
    {
      "inputs": [],
      "name": "initialized",
      "outputs": [
        {
          "internalType": "bool",
          "name": "",
          "type": "bool"
        }
      ],
      "stateMutability": "view",
      "type": "function"
    },
    {
      "inputs": [],
      "name": "markup",
      "outputs": [
        {
          "internalType": "uint256",
          "name": "",
          "type": "uint256"
        }
      ],
      "stateMutability": "view",
      "type": "function"
    },
    {
      "inputs": [
        {
          "internalType": "address",
          "name": "to",
          "type": "address"
        },
        {
          "internalType": "uint256",
          "name": "amount",
          "type": "uint256"
        }
      ],
      "name": "mint",
      "outputs": [],
      "stateMutability": "nonpayable",
      "type": "function"
    },
    {
      "inputs": [],
      "name": "name",
      "outputs": [
        {
          "internalType": "string",
          "name": "",
          "type": "string"
        }
      ],
      "stateMutability": "view",
      "type": "function"
    },
    {
      "inputs": [
        {
          "internalType": "address",
          "name": "owner",
          "type": "address"
        }
      ],
      "name": "nonces",
      "outputs": [
        {
          "internalType": "uint256",
          "name": "",
          "type": "uint256"
        }
      ],
      "stateMutability": "view",
      "type": "function"
    },
    {
      "inputs": [
        {
          "internalType": "address",
          "name": "owner",
          "type": "address"
        },
        {
          "internalType": "address",
          "name": "spender",
          "type": "address"
        },
        {
          "internalType": "uint256",
          "name": "value",
          "type": "uint256"
        },
        {
          "internalType": "uint256",
          "name": "deadline",
          "type": "uint256"
        },
        {
          "internalType": "uint8",
          "name": "v",
          "type": "uint8"
        },
        {
          "internalType": "bytes32",
          "name": "r",
          "type": "bytes32"
        },
        {
          "internalType": "bytes32",
          "name": "s",
          "type": "bytes32"
        }
      ],
      "name": "permit",
      "outputs": [],
      "stateMutability": "nonpayable",
      "type": "function"
    },
    {
      "inputs": [
        {
          "internalType": "bytes32",
          "name": "role",
          "type": "bytes32"
        },
        {
          "internalType": "address",
          "name": "account",
          "type": "address"
        }
      ],
      "name": "renounceRole",
      "outputs": [],
      "stateMutability": "nonpayable",
      "type": "function"
    },
    {
      "inputs": [
        {
          "internalType": "bytes32",
          "name": "role",
          "type": "bytes32"
        },
        {
          "internalType": "address",
          "name": "account",
          "type": "address"
        }
      ],
      "name": "revokeRole",
      "outputs": [],
      "stateMutability": "nonpayable",
      "type": "function"
    },
    {
      "inputs": [
        {
          "internalType": "uint256",
          "name": "markup_",
          "type": "uint256"
        }
      ],
      "name": "setMarkup",
      "outputs": [],
      "stateMutability": "nonpayable",
      "type": "function"
    },
    {
      "inputs": [
        {
          "internalType": "bytes4",
          "name": "interfaceId",
          "type": "bytes4"
        }
      ],
      "name": "supportsInterface",
      "outputs": [
        {
          "internalType": "bool",
          "name": "",
          "type": "bool"
        }
      ],
      "stateMutability": "view",
      "type": "function"
    },
    {
      "inputs": [],
      "name": "symbol",
      "outputs": [
        {
          "internalType": "string",
          "name": "",
          "type": "string"
        }
      ],
      "stateMutability": "view",
      "type": "function"
    },
    {
      "inputs": [],
      "name": "totalSupply",
      "outputs": [
        {
          "internalType": "uint256",
          "name": "",
          "type": "uint256"
        }
      ],
      "stateMutability": "view",
      "type": "function"
    },
    {
      "inputs": [
        {
          "internalType": "address",
          "name": "recipient",
          "type": "address"
        },
        {
          "internalType": "uint256",
          "name": "amount",
          "type": "uint256"
        }
      ],
      "name": "transfer",
      "outputs": [
        {
          "internalType": "bool",
          "name": "",
          "type": "bool"
        }
      ],
      "stateMutability": "nonpayable",
      "type": "function"
    },
    {
      "inputs": [
        {
          "internalType": "address",
          "name": "sender",
          "type": "address"
        },
        {
          "internalType": "address",
          "name": "recipient",
          "type": "address"
        },
        {
          "internalType": "uint256",
          "name": "amount",
          "type": "uint256"
        }
      ],
      "name": "transferFrom",
      "outputs": [
        {
          "internalType": "bool",
          "name": "",
          "type": "bool"
        }
      ],
      "stateMutability": "nonpayable",
      "type": "function"
    },
    {
      "inputs": [
        {
          "internalType": "address",
          "name": "to",
          "type": "address"
        },
        {
          "internalType": "uint256",
          "name": "amount",
          "type": "uint256"
        }
      ],
      "name": "withdraw",
      "outputs": [],
      "stateMutability": "nonpayable",
      "type": "function"
    }
  ],
  "transactionHash": "0x36aecd4edc3e9824e5fb41d879fa285a848e3ce72cec429f19f8d81a50a0da17",
  "args": [
    "PFaker",
    "PERF",
    "0xc2132d05d31c914a87c6611c10748aeb04b58e8f",
    "0x60d55f02a771d515e077c9c2403a1ef324885cec",
    "0x8dFf5E27EA6b7AC08EbFdf9eB090F32ee9a30fcf",
    "0x0d500B1d8E8eF31E21C99d1Db9A6444d3ADf1270",
    "0xd02eE023dB1F9B856Ff6797ACFEaa46318433298",
    "0x357D51124f59836DeD84c8a1730D72B749d8BC23"
  ],
  "numDeployments": 1,
  "solcInputHash": "292223dc7c9f050c3566c9c45a3e5bf8",
  "bytecode": "0x6102006040527f6e71edae12b1b97f4d1f60370fef10105fa2faae0126114a169c64845d6126c961012052620000386004600a62000569565b6200004590600562000635565b6007556008805460ff191690553480156200005f57600080fd5b5060405162003acb38038062003acb833981016040819052620000829162000449565b8780604051806040016040528060018152602001603160f81b8152508a8a8160039080519060200190620000b8929190620002d3565b508051620000ce906004906020840190620002d3565b5050825160209384012082519284019290922060c083815260e08290524660a0818152604080517f8b73c3c69bb8fe3d512ecc4cf759cc79239f7b179b0ffacaa9a75d522b39400f818a01819052818301989098526060808201969096526080808201949094523081840152815180820390930183529093019092528151919095012090935250610100526001600160601b031985821b81166101a05288821b81166101c05287821b81166101e05284821b81166101805286821b8116610160529083901b166101405250620001a66000336200020c565b620001d27f74a064b2dec4aeb0b53e2d06f8e76ce531a17302a866fe51bc86d9a90b4e85e3336200020c565b620001fe7f5407862f04286ebe607684514c14b7fffc750b6bf52ba44ea49569174845a5bd336200020c565b5050505050505050620006c0565b6200021882826200021c565b5050565b620002288282620002a6565b620002185760008281526006602090815260408083206001600160a01b03851684529091529020805460ff19166001179055620002623390565b6001600160a01b0316816001600160a01b0316837f2f8788117e7eff1d82e926ec794901d17c78024a50270940304540a733656f0d60405160405180910390a45050565b60008281526006602090815260408083206001600160a01b038516845290915290205460ff165b92915050565b828054620002e19062000657565b90600052602060002090601f01602090048101928262000305576000855562000350565b82601f106200032057805160ff191683800117855562000350565b8280016001018555821562000350579182015b828111156200035057825182559160200191906001019062000333565b506200035e92915062000362565b5090565b5b808211156200035e576000815560010162000363565b80516001600160a01b03811681146200039157600080fd5b919050565b600082601f830112620003a7578081fd5b81516001600160401b0380821115620003c457620003c4620006aa565b604051601f8301601f19908116603f01168101908282118183101715620003ef57620003ef620006aa565b816040528381526020925086838588010111156200040b578485fd5b8491505b838210156200042e57858201830151818301840152908201906200040f565b838211156200043f57848385830101525b9695505050505050565b600080600080600080600080610100898b03121562000466578384fd5b88516001600160401b03808211156200047d578586fd5b6200048b8c838d0162000396565b995060208b0151915080821115620004a1578586fd5b50620004b08b828c0162000396565b975050620004c160408a0162000379565b9550620004d160608a0162000379565b9450620004e160808a0162000379565b9350620004f160a08a0162000379565b92506200050160c08a0162000379565b91506200051160e08a0162000379565b90509295985092959890939650565b600181815b808511156200056157816000190482111562000545576200054562000694565b808516156200055357918102915b93841c939080029062000525565b509250929050565b60006200057a60ff84168362000581565b9392505050565b6000826200059257506001620002cd565b81620005a157506000620002cd565b8160018114620005ba5760028114620005c557620005e5565b6001915050620002cd565b60ff841115620005d957620005d962000694565b50506001821b620002cd565b5060208310610133831016604e8410600b84101617156200060a575081810a620002cd565b62000616838362000520565b80600019048211156200062d576200062d62000694565b029392505050565b600081600019048311821515161562000652576200065262000694565b500290565b600181811c908216806200066c57607f821691505b602082108114156200068e57634e487b7160e01b600052602260045260246000fd5b50919050565b634e487b7160e01b600052601160045260246000fd5b634e487b7160e01b600052604160045260246000fd5b60805160a05160c05160e05161010051610120516101405160601c6101605160601c6101805160601c6101a05160601c6101c05160601c6101e05160601c6132b8620008136000396000818161058701528181610d320152818161133b01526123500152600081816104d701528181610893015281816109e501528181610a7601528181610acb01528181610f76015281816115ad015281816116ac0152818161178701528181611b1001528181611ba401526123e40152600081816106280152818161077c01526108310152600081816103ea015281816108f1015261092001526000818161044f01528181610a9801528181610aed01528181611ae101528181611be00152818161232101526124190152600081816104890152610cfc0152600061141101526000611eeb01526000611f3a01526000611f1501526000611e9901526000611ec201526132b86000f3fe608060405234801561001057600080fd5b50600436106102745760003560e01c8063878a013511610151578063c5a92656116100c3578063d547741f11610087578063d547741f146105bc578063dd62ed3e146105cf578063e4a3011614610608578063e56a93b81461061b578063e95d832814610623578063f3fef3a31461064a57600080fd5b8063c5a926561461054a578063c98c05b714610553578063ca4fb87c1461055b578063d2dc84fd14610582578063d505accf146105a957600080fd5b806391d148541161011557806391d14854146104f957806395d89b411461050c578063a217fddf14610514578063a457c2d71461051c578063a9059cbb1461052f578063b4eae1cb1461054257600080fd5b8063878a01351461044a5780638b9789c9146104715780638e4be520146104845780638f839603146104ab57806391cb6e71146104d257600080fd5b806336568abe116101ea57806342966c68116101ae57806342966c68146103a15780635891de72146103b457806370a08231146103bc57806379b36943146103e557806379cc6790146104245780637ecebe001461043757600080fd5b806336568abe14610358578063377d7c9f1461036b5780633950935114610373578063399c04251461038657806340c10f191461038e57600080fd5b806319f7a8411161023c57806319f7a841146102e857806323b872dd146102f2578063248a9ca3146103055780632f2ff15d14610328578063313ce5671461033b5780633644e5151461035057600080fd5b806301ffc9a71461027957806306fdde03146102a1578063095ea7b3146102b6578063158ef93e146102c957806318160ddd146102d6575b600080fd5b61028c610287366004612e31565b61065d565b60405190151581526020015b60405180910390f35b6102a9610694565b6040516102989190612fdf565b61028c6102c4366004612cee565b610726565b60085461028c9060ff1681565b6002545b604051908152602001610298565b6102f061073c565b005b61028c610300366004612c47565b610b5c565b6102da610313366004612df7565b60009081526006602052604090206001015490565b6102f0610336366004612e0f565b610c0d565b60065b60405160ff9091168152602001610298565b6102da610c33565b6102f0610366366004612e0f565b610c42565b6102f0610cc0565b61028c610381366004612cee565b610ec0565b6102da610efc565b6102f061039c366004612cee565b610f4c565b6102f06103af366004612df7565b61100a565b6102da611017565b6102da6103ca366004612bfb565b6001600160a01b031660009081526020819052604090205490565b61040c7f000000000000000000000000000000000000000000000000000000000000000081565b6040516001600160a01b039091168152602001610298565b6102f0610432366004612cee565b6110a4565b6102da610445366004612bfb565b611125565b61040c7f000000000000000000000000000000000000000000000000000000000000000081565b6102f061047f366004612df7565b611143565b61040c7f000000000000000000000000000000000000000000000000000000000000000081565b6102da7f74a064b2dec4aeb0b53e2d06f8e76ce531a17302a866fe51bc86d9a90b4e85e381565b61040c7f000000000000000000000000000000000000000000000000000000000000000081565b61028c610507366004612e0f565b6111ba565b6102a96111e5565b6102da600081565b61028c61052a366004612cee565b6111f4565b61028c61053d366004612cee565b61128d565b6102da61129a565b6102da60075481565b6102da611323565b6102da7f5407862f04286ebe607684514c14b7fffc750b6bf52ba44ea49569174845a5bd81565b61040c7f000000000000000000000000000000000000000000000000000000000000000081565b6102f06105b7366004612c82565b6113bd565b6102f06105ca366004612e0f565b611521565b6102da6105dd366004612c15565b6001600160a01b03918216600090815260016020908152604080832093909416825291909152205490565b6102f0610616366004612e71565b611547565b61033e600481565b61040c7f000000000000000000000000000000000000000000000000000000000000000081565b6102f0610658366004612cee565b611752565b60006001600160e01b03198216637965db0b60e01b148061068e57506301ffc9a760e01b6001600160e01b03198316145b92915050565b6060600380546106a390613212565b80601f01602080910402602001604051908101604052809291908181526020018280546106cf90613212565b801561071c5780601f106106f15761010080835404028352916020019161071c565b820191906000526020600020905b8154815290600101906020018083116106ff57829003601f168201915b5050505050905090565b60006107333384846117df565b50600192915050565b7f5407862f04286ebe607684514c14b7fffc750b6bf52ba44ea49569174845a5bd6107678133611903565b6040516370a0823160e01b81523060048201527f0000000000000000000000000000000000000000000000000000000000000000906000906001600160a01b038316906370a082319060240160206040518083038186803b1580156107cb57600080fd5b505afa1580156107df573d6000803e3d6000fd5b505050506040513d601f19601f820116820180604052508101906108039190612e59565b90506002811115610b57576040805160028082526060820183526000926020830190803683370190505090507f00000000000000000000000000000000000000000000000000000000000000008160008151811061087157634e487b7160e01b600052603260045260246000fd5b60200260200101906001600160a01b031690816001600160a01b0316815250507f0000000000000000000000000000000000000000000000000000000000000000816001815181106108d357634e487b7160e01b600052603260045260246000fd5b6001600160a01b0392831660209182029290920101526109169084167f000000000000000000000000000000000000000000000000000000000000000084611967565b6001600160a01b037f0000000000000000000000000000000000000000000000000000000000000000166338ed1739836000843061095642610708611abe565b6040518663ffffffff1660e01b8152600401610976959493929190613012565b600060405180830381600087803b15801561099057600080fd5b505af11580156109a4573d6000803e3d6000fd5b505050506040513d6000823e601f3d908101601f191682016040526109cc9190810190612d17565b506040516370a0823160e01b81523060048201526000907f00000000000000000000000000000000000000000000000000000000000000006001600160a01b0316906370a082319060240160206040518083038186803b158015610a2f57600080fd5b505afa158015610a43573d6000803e3d6000fd5b505050506040513d601f19601f82011682018060405250810190610a679190612e59565b9050610abe6001600160a01b037f0000000000000000000000000000000000000000000000000000000000000000167f00000000000000000000000000000000000000000000000000000000000000006000611967565b610b126001600160a01b037f0000000000000000000000000000000000000000000000000000000000000000167f000000000000000000000000000000000000000000000000000000000000000083611967565b610b1b81611aca565b60408051848152602081018390527f4baab667f0cc2f42bdb5461787e9f62ec026deec7b5d0b4fa5ec2fdfec5b0cd0910160405180910390a150505b505050565b6000610b69848484611c3f565b6001600160a01b038416600090815260016020908152604080832033845290915290205482811015610bf35760405162461bcd60e51b815260206004820152602860248201527f45524332303a207472616e7366657220616d6f756e74206578636565647320616044820152676c6c6f77616e636560c01b60648201526084015b60405180910390fd5b610c0085338584036117df565b60019150505b9392505050565b600082815260066020526040902060010154610c298133611903565b610b578383611e0f565b6000610c3d611e95565b905090565b6001600160a01b0381163314610cb25760405162461bcd60e51b815260206004820152602f60248201527f416363657373436f6e74726f6c3a2063616e206f6e6c792072656e6f756e636560448201526e103937b632b9903337b91039b2b63360891b6064820152608401610bea565b610cbc8282611f88565b5050565b7f5407862f04286ebe607684514c14b7fffc750b6bf52ba44ea49569174845a5bd610ceb8133611903565b6040805160018082528183019092527f00000000000000000000000000000000000000000000000000000000000000009160009190602080830190803683370190505090507f000000000000000000000000000000000000000000000000000000000000000081600081518110610d7257634e487b7160e01b600052603260045260246000fd5b6001600160a01b0392831660209182029290920101526040516345accf9360e11b8152600091841690638b599f2690610db19085903090600401612f82565b60206040518083038186803b158015610dc957600080fd5b505afa158015610ddd573d6000803e3d6000fd5b505050506040513d601f19601f82011682018060405250810190610e019190612e59565b604051633111e7b360e01b81529091506001600160a01b03841690633111e7b390610e3490859085903090600401612fac565b602060405180830381600087803b158015610e4e57600080fd5b505af1158015610e62573d6000803e3d6000fd5b505050506040513d601f19601f82011682018060405250810190610e869190612e59565b506040518181527fbaff721654472c7678712abe6447438f26b27dbb4fc4e0b96fd8174ce684a4c99060200160405180910390a150505050565b3360008181526001602090815260408083206001600160a01b03871684529091528120549091610733918590610ef790869061304e565b6117df565b600080610f0761129a565b90506000610f39610f1a60046002613066565b610f2590600a6130ee565b600754610f33908590611fef565b90611ffb565b9050610f45818361304e565b9250505090565b6000610f6f610f5d6006600a6130ee565b610f3384610f69610efc565b90611fef565b9050610fa67f00000000000000000000000000000000000000000000000000000000000000006001600160a01b0316333084612007565b610faf81611aca565b610fb9838361203f565b7f25b428dfde728ccfaddad7e29e4ac23c24ed7fd1a6e3e3f91894a9a073f5dfff335b604080516001600160a01b0390921682526020820184905281018490526060015b60405180910390a1505050565b611014338261211e565b50565b6000610c3d611024611323565b610f336110336006600a6130ee565b306001600160a01b03166318160ddd6040518163ffffffff1660e01b815260040160206040518083038186803b15801561106c57600080fd5b505afa158015611080573d6000803e3d6000fd5b505050506040513d601f19601f82011682018060405250810190610f699190612e59565b60006110b083336105dd565b90508181101561110e5760405162461bcd60e51b8152602060048201526024808201527f45524332303a206275726e20616d6f756e74206578636565647320616c6c6f77604482015263616e636560e01b6064820152608401610bea565b61111b83338484036117df565b610b57838361211e565b6001600160a01b03811660009081526005602052604081205461068e565b7f74a064b2dec4aeb0b53e2d06f8e76ce531a17302a866fe51bc86d9a90b4e85e361116e8133611903565b60078290557fd1a3ca5ae3a8b741052365aa0dabdd2bb79673a49f36b3528d216cc5f948f1fb33604080516001600160a01b039092168252602082018590520160405180910390a15050565b60009182526006602090815260408084206001600160a01b0393909316845291905290205460ff1690565b6060600480546106a390613212565b3360009081526001602090815260408083206001600160a01b0386168452909152812054828110156112765760405162461bcd60e51b815260206004820152602560248201527f45524332303a2064656372656173656420616c6c6f77616e63652062656c6f77604482015264207a65726f60d81b6064820152608401610bea565b61128333858584036117df565b5060019392505050565b6000610733338484611c3f565b6000610c3d306001600160a01b03166318160ddd6040518163ffffffff1660e01b815260040160206040518083038186803b1580156112d857600080fd5b505afa1580156112ec573d6000803e3d6000fd5b505050506040513d601f19601f820116820180604052508101906113109190612e59565b610f3361131f6006600a6130ee565b610f695b6040516370a0823160e01b81523060048201526000907f00000000000000000000000000000000000000000000000000000000000000006001600160a01b0316906370a082319060240160206040518083038186803b15801561138557600080fd5b505afa158015611399573d6000803e3d6000fd5b505050506040513d601f19601f82011682018060405250810190610c3d9190612e59565b8342111561140d5760405162461bcd60e51b815260206004820152601d60248201527f45524332305065726d69743a206578706972656420646561646c696e650000006044820152606401610bea565b60007f000000000000000000000000000000000000000000000000000000000000000088888861143c8c61226c565b6040805160208101969096526001600160a01b0394851690860152929091166060840152608083015260a082015260c0810186905260e001604051602081830303815290604052805190602001209050600061149782612294565b905060006114a7828787876122e2565b9050896001600160a01b0316816001600160a01b03161461150a5760405162461bcd60e51b815260206004820152601e60248201527f45524332305065726d69743a20696e76616c6964207369676e617475726500006044820152606401610bea565b6115158a8a8a6117df565b50505050505050505050565b60008281526006602052604090206001015461153d8133611903565b610b578383611f88565b60006115538133611903565b60085460ff16156115a65760405162461bcd60e51b815260206004820152601c60248201527f436f6e747261637420616c726561647920696e697469616c697a6564000000006044820152606401610bea565b600660ff167f00000000000000000000000000000000000000000000000000000000000000006001600160a01b031663313ce5676040518163ffffffff1660e01b815260040160206040518083038186803b15801561160457600080fd5b505afa158015611618573d6000803e3d6000fd5b505050506040513d601f19601f8201168201806040525081019061163c9190612e92565b60ff16146116a75760405162461bcd60e51b815260206004820152603260248201527f446563696d616c732066726f6d20636f6c6c61746572616c20616e64207468696044820152710e6408aa486646040daeae6e840dac2e8c6d60731b6064820152608401610bea565b6116dc7f00000000000000000000000000000000000000000000000000000000000000006001600160a01b0316333086612007565b6116e583611aca565b6116f8336116f38486611fef565b61203f565b6008805460ff191660011790557f0f91882b50d9330af0b1d4998e6af7f2eaee90ce7e77ea54fea089af166d021d61172d3390565b604080516001600160a01b039092168252602082018690528101849052606001610ffd565b600061176f6117636006600a6130ee565b610f3384610f6961129a565b905061177a8161230a565b6117ae6001600160a01b037f0000000000000000000000000000000000000000000000000000000000000000168483612495565b6117b8338361211e565b7fdf273cb619d95419a9cd0ec88123a0538c85064229baa6363788f743fff90deb33610fdc565b6001600160a01b0383166118415760405162461bcd60e51b8152602060048201526024808201527f45524332303a20617070726f76652066726f6d20746865207a65726f206164646044820152637265737360e01b6064820152608401610bea565b6001600160a01b0382166118a25760405162461bcd60e51b815260206004820152602260248201527f45524332303a20617070726f766520746f20746865207a65726f206164647265604482015261737360f01b6064820152608401610bea565b6001600160a01b0383811660008181526001602090815260408083209487168084529482529182902085905590518481527f8c5be1e5ebec7d5bd14f71427d1e84f3dd0314c0f7b2291e5b200ac8c7c3b925910160405180910390a3505050565b61190d82826111ba565b610cbc57611925816001600160a01b031660146124c5565b6119308360206124c5565b604051602001611941929190612f0d565b60408051601f198184030181529082905262461bcd60e51b8252610bea91600401612fdf565b8015806119f05750604051636eb1769f60e11b81523060048201526001600160a01b03838116602483015284169063dd62ed3e9060440160206040518083038186803b1580156119b657600080fd5b505afa1580156119ca573d6000803e3d6000fd5b505050506040513d601f19601f820116820180604052508101906119ee9190612e59565b155b611a5b5760405162461bcd60e51b815260206004820152603660248201527f5361666545524332303a20617070726f76652066726f6d206e6f6e2d7a65726f60448201527520746f206e6f6e2d7a65726f20616c6c6f77616e636560501b6064820152608401610bea565b6040516001600160a01b038316602482015260448101829052610b5790849063095ea7b360e01b906064015b60408051601f198184030181529190526020810180516001600160e01b03166001600160e01b0319909316929092179091526126a7565b6000610c06828461304e565b60405163095ea7b360e01b81526001600160a01b037f000000000000000000000000000000000000000000000000000000000000000081166004830152602482018390527f0000000000000000000000000000000000000000000000000000000000000000169063095ea7b390604401602060405180830381600087803b158015611b5457600080fd5b505af1158015611b68573d6000803e3d6000fd5b505050506040513d601f19601f82011682018060405250810190611b8c9190612dd7565b5060405163e8eda9df60e01b81526001600160a01b037f00000000000000000000000000000000000000000000000000000000000000008116600483015260248201839052306044830152600060648301527f0000000000000000000000000000000000000000000000000000000000000000169063e8eda9df90608401600060405180830381600087803b158015611c2457600080fd5b505af1158015611c38573d6000803e3d6000fd5b5050505050565b6001600160a01b038316611ca35760405162461bcd60e51b815260206004820152602560248201527f45524332303a207472616e736665722066726f6d20746865207a65726f206164604482015264647265737360d81b6064820152608401610bea565b6001600160a01b038216611d055760405162461bcd60e51b815260206004820152602360248201527f45524332303a207472616e7366657220746f20746865207a65726f206164647260448201526265737360e81b6064820152608401610bea565b6001600160a01b03831660009081526020819052604090205481811015611d7d5760405162461bcd60e51b815260206004820152602660248201527f45524332303a207472616e7366657220616d6f756e7420657863656564732062604482015265616c616e636560d01b6064820152608401610bea565b6001600160a01b03808516600090815260208190526040808220858503905591851681529081208054849290611db490849061304e565b92505081905550826001600160a01b0316846001600160a01b03167fddf252ad1be2c89b69c2b068fc378daa952ba7f163c4a11628f55a4df523b3ef84604051611e0091815260200190565b60405180910390a35b50505050565b611e1982826111ba565b610cbc5760008281526006602090815260408083206001600160a01b03851684529091529020805460ff19166001179055611e513390565b6001600160a01b0316816001600160a01b0316837f2f8788117e7eff1d82e926ec794901d17c78024a50270940304540a733656f0d60405160405180910390a45050565b60007f0000000000000000000000000000000000000000000000000000000000000000461415611ee457507f000000000000000000000000000000000000000000000000000000000000000090565b50604080517f00000000000000000000000000000000000000000000000000000000000000006020808301919091527f0000000000000000000000000000000000000000000000000000000000000000828401527f000000000000000000000000000000000000000000000000000000000000000060608301524660808301523060a0808401919091528351808403909101815260c0909201909252805191012090565b611f9282826111ba565b15610cbc5760008281526006602090815260408083206001600160a01b0385168085529252808320805460ff1916905551339285917ff6391f5c32d9c69d2a47ea670b442974b53935d1edc7fd64eb21e047a839171b9190a45050565b6000610c068284613199565b6000610c06828461308b565b6040516001600160a01b0380851660248301528316604482015260648101829052611e099085906323b872dd60e01b90608401611a87565b6001600160a01b0382166120955760405162461bcd60e51b815260206004820152601f60248201527f45524332303a206d696e7420746f20746865207a65726f2061646472657373006044820152606401610bea565b80600260008282546120a7919061304e565b90915550506001600160a01b038216600090815260208190526040812080548392906120d490849061304e565b90915550506040518181526001600160a01b038316906000907fddf252ad1be2c89b69c2b068fc378daa952ba7f163c4a11628f55a4df523b3ef9060200160405180910390a35050565b6001600160a01b03821661217e5760405162461bcd60e51b815260206004820152602160248201527f45524332303a206275726e2066726f6d20746865207a65726f206164647265736044820152607360f81b6064820152608401610bea565b6001600160a01b038216600090815260208190526040902054818110156121f25760405162461bcd60e51b815260206004820152602260248201527f45524332303a206275726e20616d6f756e7420657863656564732062616c616e604482015261636560f01b6064820152608401610bea565b6001600160a01b03831660009081526020819052604081208383039055600280548492906122219084906131b8565b90915550506040518281526000906001600160a01b038516907fddf252ad1be2c89b69c2b068fc378daa952ba7f163c4a11628f55a4df523b3ef9060200160405180910390a3505050565b6001600160a01b03811660009081526005602052604090208054600181018255905b50919050565b600061068e6122a1611e95565b8360405161190160f01b6020820152602281018390526042810182905260009060620160405160208183030381529060405280519060200120905092915050565b60008060006122f387878787612779565b9150915061230081612866565b5095945050505050565b60405163095ea7b360e01b81526001600160a01b037f000000000000000000000000000000000000000000000000000000000000000081166004830152602482018390527f0000000000000000000000000000000000000000000000000000000000000000169063095ea7b390604401602060405180830381600087803b15801561239457600080fd5b505af11580156123a8573d6000803e3d6000fd5b505050506040513d601f19601f820116820180604052508101906123cc9190612dd7565b50604051631a4ca37b60e21b81526001600160a01b037f000000000000000000000000000000000000000000000000000000000000000081166004830152602482018390523060448301527f000000000000000000000000000000000000000000000000000000000000000016906369328dec90606401602060405180830381600087803b15801561245d57600080fd5b505af1158015612471573d6000803e3d6000fd5b505050506040513d601f19601f82011682018060405250810190610cbc9190612e59565b6040516001600160a01b038316602482015260448101829052610b5790849063a9059cbb60e01b90606401611a87565b606060006124d4836002613199565b6124df90600261304e565b67ffffffffffffffff81111561250557634e487b7160e01b600052604160045260246000fd5b6040519080825280601f01601f19166020018201604052801561252f576020820181803683370190505b509050600360fc1b8160008151811061255857634e487b7160e01b600052603260045260246000fd5b60200101906001600160f81b031916908160001a905350600f60fb1b8160018151811061259557634e487b7160e01b600052603260045260246000fd5b60200101906001600160f81b031916908160001a90535060006125b9846002613199565b6125c490600161304e565b90505b6001811115612658576f181899199a1a9b1b9c1cb0b131b232b360811b85600f166010811061260657634e487b7160e01b600052603260045260246000fd5b1a60f81b82828151811061262a57634e487b7160e01b600052603260045260246000fd5b60200101906001600160f81b031916908160001a90535060049490941c93612651816131fb565b90506125c7565b508315610c065760405162461bcd60e51b815260206004820181905260248201527f537472696e67733a20686578206c656e67746820696e73756666696369656e746044820152606401610bea565b60006126fc826040518060400160405280602081526020017f5361666545524332303a206c6f772d6c6576656c2063616c6c206661696c6564815250856001600160a01b0316612a679092919063ffffffff16565b805190915015610b57578080602001905181019061271a9190612dd7565b610b575760405162461bcd60e51b815260206004820152602a60248201527f5361666545524332303a204552433230206f7065726174696f6e20646964206e6044820152691bdd081cdd58d8d9595960b21b6064820152608401610bea565b6000807f7fffffffffffffffffffffffffffffff5d576e7357a4501ddfe92f46681b20a08311156127b0575060009050600361285d565b8460ff16601b141580156127c857508460ff16601c14155b156127d9575060009050600461285d565b6040805160008082526020820180845289905260ff881692820192909252606081018690526080810185905260019060a0016020604051602081039080840390855afa15801561282d573d6000803e3d6000fd5b5050604051601f1901519150506001600160a01b0381166128565760006001925092505061285d565b9150600090505b94509492505050565b600081600481111561288857634e487b7160e01b600052602160045260246000fd5b14156128915750565b60018160048111156128b357634e487b7160e01b600052602160045260246000fd5b14156129015760405162461bcd60e51b815260206004820152601860248201527f45434453413a20696e76616c6964207369676e617475726500000000000000006044820152606401610bea565b600281600481111561292357634e487b7160e01b600052602160045260246000fd5b14156129715760405162461bcd60e51b815260206004820152601f60248201527f45434453413a20696e76616c6964207369676e6174757265206c656e677468006044820152606401610bea565b600381600481111561299357634e487b7160e01b600052602160045260246000fd5b14156129ec5760405162461bcd60e51b815260206004820152602260248201527f45434453413a20696e76616c6964207369676e6174757265202773272076616c604482015261756560f01b6064820152608401610bea565b6004816004811115612a0e57634e487b7160e01b600052602160045260246000fd5b14156110145760405162461bcd60e51b815260206004820152602260248201527f45434453413a20696e76616c6964207369676e6174757265202776272076616c604482015261756560f01b6064820152608401610bea565b6060612a768484600085612a7e565b949350505050565b606082471015612adf5760405162461bcd60e51b815260206004820152602660248201527f416464726573733a20696e73756666696369656e742062616c616e636520666f6044820152651c8818d85b1b60d21b6064820152608401610bea565b843b612b2d5760405162461bcd60e51b815260206004820152601d60248201527f416464726573733a2063616c6c20746f206e6f6e2d636f6e74726163740000006044820152606401610bea565b600080866001600160a01b03168587604051612b499190612ef1565b60006040518083038185875af1925050503d8060008114612b86576040519150601f19603f3d011682016040523d82523d6000602084013e612b8b565b606091505b5091509150612b9b828286612ba6565b979650505050505050565b60608315612bb5575081610c06565b825115612bc55782518084602001fd5b8160405162461bcd60e51b8152600401610bea9190612fdf565b80356001600160a01b0381168114612bf657600080fd5b919050565b600060208284031215612c0c578081fd5b610c0682612bdf565b60008060408385031215612c27578081fd5b612c3083612bdf565b9150612c3e60208401612bdf565b90509250929050565b600080600060608486031215612c5b578081fd5b612c6484612bdf565b9250612c7260208501612bdf565b9150604084013590509250925092565b600080600080600080600060e0888a031215612c9c578283fd5b612ca588612bdf565b9650612cb360208901612bdf565b955060408801359450606088013593506080880135612cd181613273565b9699959850939692959460a0840135945060c09093013592915050565b60008060408385031215612d00578182fd5b612d0983612bdf565b946020939093013593505050565b60006020808385031215612d29578182fd5b825167ffffffffffffffff80821115612d40578384fd5b818501915085601f830112612d53578384fd5b815181811115612d6557612d6561325d565b8060051b604051601f19603f83011681018181108582111715612d8a57612d8a61325d565b604052828152858101935084860182860187018a1015612da8578788fd5b8795505b83861015612dca578051855260019590950194938601938601612dac565b5098975050505050505050565b600060208284031215612de8578081fd5b81518015158114610c06578182fd5b600060208284031215612e08578081fd5b5035919050565b60008060408385031215612e21578182fd5b82359150612c3e60208401612bdf565b600060208284031215612e42578081fd5b81356001600160e01b031981168114610c06578182fd5b600060208284031215612e6a578081fd5b5051919050565b60008060408385031215612e83578182fd5b50508035926020909101359150565b600060208284031215612ea3578081fd5b8151610c0681613273565b6000815180845260208085019450808401835b83811015612ee65781516001600160a01b031687529582019590820190600101612ec1565b509495945050505050565b60008251612f038184602087016131cf565b9190910192915050565b7f416363657373436f6e74726f6c3a206163636f756e7420000000000000000000815260008351612f458160178501602088016131cf565b7001034b99036b4b9b9b4b733903937b6329607d1b6017918401918201528351612f768160288401602088016131cf565b01602801949350505050565b604081526000612f956040830185612eae565b905060018060a01b03831660208301529392505050565b606081526000612fbf6060830186612eae565b6020830194909452506001600160a01b0391909116604090910152919050565b6020815260008251806020840152612ffe8160408501602087016131cf565b601f01601f19169190910160400192915050565b85815284602082015260a06040820152600061303160a0830186612eae565b6001600160a01b0394909416606083015250608001529392505050565b6000821982111561306157613061613247565b500190565b600060ff821660ff84168060ff0382111561308357613083613247565b019392505050565b6000826130a657634e487b7160e01b81526012600452602481fd5b500490565b600181815b808511156130e65781600019048211156130cc576130cc613247565b808516156130d957918102915b93841c93908002906130b0565b509250929050565b6000610c0660ff8416836000826131075750600161068e565b816131145750600061068e565b816001811461312a576002811461313457613150565b600191505061068e565b60ff84111561314557613145613247565b50506001821b61068e565b5060208310610133831016604e8410600b8410161715613173575081810a61068e565b61317d83836130ab565b806000190482111561319157613191613247565b029392505050565b60008160001904831182151516156131b3576131b3613247565b500290565b6000828210156131ca576131ca613247565b500390565b60005b838110156131ea5781810151838201526020016131d2565b83811115611e095750506000910152565b60008161320a5761320a613247565b506000190190565b600181811c9082168061322657607f821691505b6020821081141561228e57634e487b7160e01b600052602260045260246000fd5b634e487b7160e01b600052601160045260246000fd5b634e487b7160e01b600052604160045260246000fd5b60ff8116811461101457600080fdfea2646970667358221220dcd535c983862149d82e1b144875f687f7f9e1ad54069193c09dd205dad1a4db64736f6c63430008040033",
  "devdoc": {
    "kind": "dev",
    "methods": {
      "DOMAIN_SEPARATOR()": {
        "details": "See {IERC20Permit-DOMAIN_SEPARATOR}."
      },
      "allowance(address,address)": {
        "details": "See {IERC20-allowance}."
      },
      "approve(address,uint256)": {
        "details": "See {IERC20-approve}. Requirements: - `spender` cannot be the zero address."
      },
      "balanceOf(address)": {
        "details": "See {IERC20-balanceOf}."
      },
      "burn(uint256)": {
        "details": "Destroys `amount` tokens from the caller. See {ERC20-_burn}."
      },
      "burnFrom(address,uint256)": {
        "details": "Destroys `amount` tokens from `account`, deducting from the caller's allowance. See {ERC20-_burn} and {ERC20-allowance}. Requirements: - the caller must have allowance for ``accounts``'s tokens of at least `amount`."
      },
      "decimals()": {
        "details": "Returns the number of decimals used to get its user representation. For example, if `decimals` equals `2`, a balance of `505` tokens should be displayed to a user as `5.05` (`505 / 10 ** 2`). Tokens usually opt for a value of 18, imitating the relationship between Ether and Wei. This is the value {ERC20} uses, unless this function is overridden; NOTE: This information is only used for _display_ purposes: it in no way affects any of the arithmetic of the contract, including {IERC20-balanceOf} and {IERC20-transfer}."
      },
      "decreaseAllowance(address,uint256)": {
        "details": "Atomically decreases the allowance granted to `spender` by the caller. This is an alternative to {approve} that can be used as a mitigation for problems described in {IERC20-approve}. Emits an {Approval} event indicating the updated allowance. Requirements: - `spender` cannot be the zero address. - `spender` must have allowance for the caller of at least `subtractedValue`."
      },
      "getRoleAdmin(bytes32)": {
        "details": "Returns the admin role that controls `role`. See {grantRole} and {revokeRole}. To change a role's admin, use {_setRoleAdmin}."
      },
      "grantRole(bytes32,address)": {
        "details": "Grants `role` to `account`. If `account` had not been already granted `role`, emits a {RoleGranted} event. Requirements: - the caller must have ``role``'s admin role."
      },
      "hasRole(bytes32,address)": {
        "details": "Returns `true` if `account` has been granted `role`."
      },
      "increaseAllowance(address,uint256)": {
        "details": "Atomically increases the allowance granted to `spender` by the caller. This is an alternative to {approve} that can be used as a mitigation for problems described in {IERC20-approve}. Emits an {Approval} event indicating the updated allowance. Requirements: - `spender` cannot be the zero address."
      },
      "name()": {
        "details": "Returns the name of the token."
      },
      "nonces(address)": {
        "details": "See {IERC20Permit-nonces}."
      },
      "permit(address,address,uint256,uint256,uint8,bytes32,bytes32)": {
        "details": "See {IERC20Permit-permit}."
      },
      "renounceRole(bytes32,address)": {
        "details": "Revokes `role` from the calling account. Roles are often managed via {grantRole} and {revokeRole}: this function's purpose is to provide a mechanism for accounts to lose their privileges if they are compromised (such as when a trusted device is misplaced). If the calling account had been granted `role`, emits a {RoleRevoked} event. Requirements: - the caller must be `account`."
      },
      "revokeRole(bytes32,address)": {
        "details": "Revokes `role` from `account`. If `account` had been granted `role`, emits a {RoleRevoked} event. Requirements: - the caller must have ``role``'s admin role."
      },
      "supportsInterface(bytes4)": {
        "details": "See {IERC165-supportsInterface}."
      },
      "symbol()": {
        "details": "Returns the symbol of the token, usually a shorter version of the name."
      },
      "totalSupply()": {
        "details": "See {IERC20-totalSupply}."
      },
      "transfer(address,uint256)": {
        "details": "See {IERC20-transfer}. Requirements: - `recipient` cannot be the zero address. - the caller must have a balance of at least `amount`."
      },
      "transferFrom(address,address,uint256)": {
        "details": "See {IERC20-transferFrom}. Emits an {Approval} event indicating the updated allowance. This is not required by the EIP. See the note at the beginning of {ERC20}. Requirements: - `sender` and `recipient` cannot be the zero address. - `sender` must have a balance of at least `amount`. - the caller must have allowance for ``sender``'s tokens of at least `amount`."
      }
    },
    "version": 1
  },
  "userdoc": {
    "kind": "user",
    "methods": {},
    "version": 1
  },
  "storageLayout": {
    "storage": [
      {
        "astId": 395,
        "contract": "contracts/Peronio.sol:Peronio",
        "label": "_balances",
        "offset": 0,
        "slot": "0",
        "type": "t_mapping(t_address,t_uint256)"
      },
      {
        "astId": 401,
        "contract": "contracts/Peronio.sol:Peronio",
        "label": "_allowances",
        "offset": 0,
        "slot": "1",
        "type": "t_mapping(t_address,t_mapping(t_address,t_uint256))"
      },
      {
        "astId": 403,
        "contract": "contracts/Peronio.sol:Peronio",
        "label": "_totalSupply",
        "offset": 0,
        "slot": "2",
        "type": "t_uint256"
      },
      {
        "astId": 405,
        "contract": "contracts/Peronio.sol:Peronio",
        "label": "_name",
        "offset": 0,
        "slot": "3",
        "type": "t_string_storage"
      },
      {
        "astId": 407,
        "contract": "contracts/Peronio.sol:Peronio",
        "label": "_symbol",
        "offset": 0,
        "slot": "4",
        "type": "t_string_storage"
      },
      {
        "astId": 1113,
        "contract": "contracts/Peronio.sol:Peronio",
        "label": "_nonces",
        "offset": 0,
        "slot": "5",
        "type": "t_mapping(t_address,t_struct(Counter)1844_storage)"
      },
      {
        "astId": 24,
        "contract": "contracts/Peronio.sol:Peronio",
        "label": "_roles",
        "offset": 0,
        "slot": "6",
        "type": "t_mapping(t_bytes32,t_struct(RoleData)19_storage)"
      },
      {
        "astId": 3026,
        "contract": "contracts/Peronio.sol:Peronio",
        "label": "markup",
        "offset": 0,
        "slot": "7",
        "type": "t_uint256"
      },
      {
        "astId": 3030,
        "contract": "contracts/Peronio.sol:Peronio",
        "label": "initialized",
        "offset": 0,
        "slot": "8",
        "type": "t_bool"
      }
    ],
    "types": {
      "t_address": {
        "encoding": "inplace",
        "label": "address",
        "numberOfBytes": "20"
      },
      "t_bool": {
        "encoding": "inplace",
        "label": "bool",
        "numberOfBytes": "1"
      },
      "t_bytes32": {
        "encoding": "inplace",
        "label": "bytes32",
        "numberOfBytes": "32"
      },
      "t_mapping(t_address,t_bool)": {
        "encoding": "mapping",
        "key": "t_address",
        "label": "mapping(address => bool)",
        "numberOfBytes": "32",
        "value": "t_bool"
      },
      "t_mapping(t_address,t_mapping(t_address,t_uint256))": {
        "encoding": "mapping",
        "key": "t_address",
        "label": "mapping(address => mapping(address => uint256))",
        "numberOfBytes": "32",
        "value": "t_mapping(t_address,t_uint256)"
      },
      "t_mapping(t_address,t_struct(Counter)1844_storage)": {
        "encoding": "mapping",
        "key": "t_address",
        "label": "mapping(address => struct Counters.Counter)",
        "numberOfBytes": "32",
        "value": "t_struct(Counter)1844_storage"
      },
      "t_mapping(t_address,t_uint256)": {
        "encoding": "mapping",
        "key": "t_address",
        "label": "mapping(address => uint256)",
        "numberOfBytes": "32",
        "value": "t_uint256"
      },
      "t_mapping(t_bytes32,t_struct(RoleData)19_storage)": {
        "encoding": "mapping",
        "key": "t_bytes32",
        "label": "mapping(bytes32 => struct AccessControl.RoleData)",
        "numberOfBytes": "32",
        "value": "t_struct(RoleData)19_storage"
      },
      "t_string_storage": {
        "encoding": "bytes",
        "label": "string",
        "numberOfBytes": "32"
      },
      "t_struct(Counter)1844_storage": {
        "encoding": "inplace",
        "label": "struct Counters.Counter",
        "members": [
          {
            "astId": 1843,
            "contract": "contracts/Peronio.sol:Peronio",
            "label": "_value",
            "offset": 0,
            "slot": "0",
            "type": "t_uint256"
          }
        ],
        "numberOfBytes": "32"
      },
      "t_struct(RoleData)19_storage": {
        "encoding": "inplace",
        "label": "struct AccessControl.RoleData",
        "members": [
          {
            "astId": 16,
            "contract": "contracts/Peronio.sol:Peronio",
            "label": "members",
            "offset": 0,
            "slot": "0",
            "type": "t_mapping(t_address,t_bool)"
          },
          {
            "astId": 18,
            "contract": "contracts/Peronio.sol:Peronio",
            "label": "adminRole",
            "offset": 0,
            "slot": "1",
            "type": "t_bytes32"
          }
        ],
        "numberOfBytes": "64"
      },
      "t_uint256": {
        "encoding": "inplace",
        "label": "uint256",
        "numberOfBytes": "32"
      }
    }
  }
}