{
  "address": "0x674C1B899618862500F75b2173CF3bd9074FDFf7",
  "abi": [
    {
      "inputs": [
        {
          "internalType": "string",
          "name": "name_",
          "type": "string"
        },
        {
          "internalType": "string",
          "name": "symbol_",
          "type": "string"
        },
        {
          "internalType": "address",
          "name": "collateral_address_",
          "type": "address"
        },
        {
          "internalType": "address",
          "name": "collateral_aave_address_",
          "type": "address"
        },
        {
          "internalType": "address",
          "name": "aave_lending_pool_address_",
          "type": "address"
        },
        {
          "internalType": "address",
          "name": "wmatic_address_",
          "type": "address"
        },
        {
          "internalType": "address",
          "name": "uniswap_router_address_",
          "type": "address"
        },
        {
          "internalType": "address",
          "name": "aave_incentive_address_",
          "type": "address"
        }
      ],
      "stateMutability": "nonpayable",
      "type": "constructor"
    },
    {
      "anonymous": false,
      "inputs": [
        {
          "indexed": true,
          "internalType": "address",
          "name": "owner",
          "type": "address"
        },
        {
          "indexed": true,
          "internalType": "address",
          "name": "spender",
          "type": "address"
        },
        {
          "indexed": false,
          "internalType": "uint256",
          "name": "value",
          "type": "uint256"
        }
      ],
      "name": "Approval",
      "type": "event"
    },
    {
      "anonymous": false,
      "inputs": [
        {
          "indexed": false,
          "internalType": "address",
          "name": "owner",
          "type": "address"
        },
        {
          "indexed": false,
          "internalType": "uint256",
          "name": "collateral",
          "type": "uint256"
        },
        {
          "indexed": false,
          "internalType": "uint256",
          "name": "starting_ratio",
          "type": "uint256"
        }
      ],
      "name": "Initialized",
      "type": "event"
    },
    {
      "anonymous": false,
      "inputs": [
        {
          "indexed": false,
          "internalType": "address",
          "name": "to",
          "type": "address"
        },
        {
          "indexed": false,
          "internalType": "uint256",
          "name": "collateralAmount",
          "type": "uint256"
        },
        {
          "indexed": false,
          "internalType": "uint256",
          "name": "tokenAmount",
          "type": "uint256"
        }
      ],
      "name": "Minted",
      "type": "event"
    },
    {
      "anonymous": false,
      "inputs": [
        {
          "indexed": true,
          "internalType": "bytes32",
          "name": "role",
          "type": "bytes32"
        },
        {
          "indexed": true,
          "internalType": "bytes32",
          "name": "previousAdminRole",
          "type": "bytes32"
        },
        {
          "indexed": true,
          "internalType": "bytes32",
          "name": "newAdminRole",
          "type": "bytes32"
        }
      ],
      "name": "RoleAdminChanged",
      "type": "event"
    },
    {
      "anonymous": false,
      "inputs": [
        {
          "indexed": true,
          "internalType": "bytes32",
          "name": "role",
          "type": "bytes32"
        },
        {
          "indexed": true,
          "internalType": "address",
          "name": "account",
          "type": "address"
        },
        {
          "indexed": true,
          "internalType": "address",
          "name": "sender",
          "type": "address"
        }
      ],
      "name": "RoleGranted",
      "type": "event"
    },
    {
      "anonymous": false,
      "inputs": [
        {
          "indexed": true,
          "internalType": "bytes32",
          "name": "role",
          "type": "bytes32"
        },
        {
          "indexed": true,
          "internalType": "address",
          "name": "account",
          "type": "address"
        },
        {
          "indexed": true,
          "internalType": "address",
          "name": "sender",
          "type": "address"
        }
      ],
      "name": "RoleRevoked",
      "type": "event"
    },
    {
      "anonymous": false,
      "inputs": [
        {
          "indexed": true,
          "internalType": "address",
          "name": "from",
          "type": "address"
        },
        {
          "indexed": true,
          "internalType": "address",
          "name": "to",
          "type": "address"
        },
        {
          "indexed": false,
          "internalType": "uint256",
          "name": "value",
          "type": "uint256"
        }
      ],
      "name": "Transfer",
      "type": "event"
    },
    {
      "anonymous": false,
      "inputs": [
        {
          "indexed": false,
          "internalType": "address",
          "name": "to",
          "type": "address"
        },
        {
          "indexed": false,
          "internalType": "uint256",
          "name": "collateralAmount",
          "type": "uint256"
        },
        {
          "indexed": false,
          "internalType": "uint256",
          "name": "tokenAmount",
          "type": "uint256"
        }
      ],
      "name": "Withdrawal",
      "type": "event"
    },
    {
      "inputs": [],
      "name": "DEFAULT_ADMIN_ROLE",
      "outputs": [
        {
          "internalType": "bytes32",
          "name": "",
          "type": "bytes32"
        }
      ],
      "stateMutability": "view",
      "type": "function"
    },
    {
      "inputs": [],
      "name": "DOMAIN_SEPARATOR",
      "outputs": [
        {
          "internalType": "bytes32",
          "name": "",
          "type": "bytes32"
        }
      ],
      "stateMutability": "view",
      "type": "function"
    },
    {
      "inputs": [],
      "name": "MARKUP_ROLE",
      "outputs": [
        {
          "internalType": "bytes32",
          "name": "",
          "type": "bytes32"
        }
      ],
      "stateMutability": "view",
      "type": "function"
    },
    {
      "inputs": [],
      "name": "REWARDS_ROLE",
      "outputs": [
        {
          "internalType": "bytes32",
          "name": "",
          "type": "bytes32"
        }
      ],
      "stateMutability": "view",
      "type": "function"
    },
    {
      "inputs": [],
      "name": "aave_incentive_address",
      "outputs": [
        {
          "internalType": "address",
          "name": "",
          "type": "address"
        }
      ],
      "stateMutability": "view",
      "type": "function"
    },
    {
      "inputs": [],
      "name": "aave_lending_pool_address",
      "outputs": [
        {
          "internalType": "address",
          "name": "",
          "type": "address"
        }
      ],
      "stateMutability": "view",
      "type": "function"
    },
    {
      "inputs": [
        {
          "internalType": "address",
          "name": "owner",
          "type": "address"
        },
        {
          "internalType": "address",
          "name": "spender",
          "type": "address"
        }
      ],
      "name": "allowance",
      "outputs": [
        {
          "internalType": "uint256",
          "name": "",
          "type": "uint256"
        }
      ],
      "stateMutability": "view",
      "type": "function"
    },
    {
      "inputs": [
        {
          "internalType": "address",
          "name": "spender",
          "type": "address"
        },
        {
          "internalType": "uint256",
          "name": "amount",
          "type": "uint256"
        }
      ],
      "name": "approve",
      "outputs": [
        {
          "internalType": "bool",
          "name": "",
          "type": "bool"
        }
      ],
      "stateMutability": "nonpayable",
      "type": "function"
    },
    {
      "inputs": [
        {
          "internalType": "address",
          "name": "account",
          "type": "address"
        }
      ],
      "name": "balanceOf",
      "outputs": [
        {
          "internalType": "uint256",
          "name": "",
          "type": "uint256"
        }
      ],
      "stateMutability": "view",
      "type": "function"
    },
    {
      "inputs": [
        {
          "internalType": "uint256",
          "name": "amount",
          "type": "uint256"
        }
      ],
      "name": "burn",
      "outputs": [],
      "stateMutability": "nonpayable",
      "type": "function"
    },
    {
      "inputs": [
        {
          "internalType": "address",
          "name": "account",
          "type": "address"
        },
        {
          "internalType": "uint256",
          "name": "amount",
          "type": "uint256"
        }
      ],
      "name": "burnFrom",
      "outputs": [],
      "stateMutability": "nonpayable",
      "type": "function"
    },
    {
      "inputs": [],
      "name": "buyingPrice",
      "outputs": [
        {
          "internalType": "uint256",
          "name": "",
          "type": "uint256"
        }
      ],
      "stateMutability": "view",
      "type": "function"
    },
    {
      "inputs": [],
      "name": "claimAaveRewards",
      "outputs": [],
      "stateMutability": "nonpayable",
      "type": "function"
    },
    {
      "inputs": [],
      "name": "collateralBalance",
      "outputs": [
        {
          "internalType": "uint256",
          "name": "",
          "type": "uint256"
        }
      ],
      "stateMutability": "view",
      "type": "function"
    },
    {
      "inputs": [],
      "name": "collateralPrice",
      "outputs": [
        {
          "internalType": "uint256",
          "name": "",
          "type": "uint256"
        }
      ],
      "stateMutability": "view",
      "type": "function"
    },
    {
      "inputs": [],
      "name": "collateralRatio",
      "outputs": [
        {
          "internalType": "uint256",
          "name": "",
          "type": "uint256"
        }
      ],
      "stateMutability": "view",
      "type": "function"
    },
    {
      "inputs": [],
      "name": "collateral_aave_address",
      "outputs": [
        {
          "internalType": "address",
          "name": "",
          "type": "address"
        }
      ],
      "stateMutability": "view",
      "type": "function"
    },
    {
      "inputs": [],
      "name": "collateral_address",
      "outputs": [
        {
          "internalType": "address",
          "name": "",
          "type": "address"
        }
      ],
      "stateMutability": "view",
      "type": "function"
    },
    {
      "inputs": [],
      "name": "decimals",
      "outputs": [
        {
          "internalType": "uint8",
          "name": "",
          "type": "uint8"
        }
      ],
      "stateMutability": "view",
      "type": "function"
    },
    {
      "inputs": [
        {
          "internalType": "address",
          "name": "spender",
          "type": "address"
        },
        {
          "internalType": "uint256",
          "name": "subtractedValue",
          "type": "uint256"
        }
      ],
      "name": "decreaseAllowance",
      "outputs": [
        {
          "internalType": "bool",
          "name": "",
          "type": "bool"
        }
      ],
      "stateMutability": "nonpayable",
      "type": "function"
    },
    {
      "inputs": [
        {
          "internalType": "bytes32",
          "name": "role",
          "type": "bytes32"
        }
      ],
      "name": "getRoleAdmin",
      "outputs": [
        {
          "internalType": "bytes32",
          "name": "",
          "type": "bytes32"
        }
      ],
      "stateMutability": "view",
      "type": "function"
    },
    {
      "inputs": [
        {
          "internalType": "bytes32",
          "name": "role",
          "type": "bytes32"
        },
        {
          "internalType": "address",
          "name": "account",
          "type": "address"
        }
      ],
      "name": "grantRole",
      "outputs": [],
      "stateMutability": "nonpayable",
      "type": "function"
    },
    {
      "inputs": [],
      "name": "harvestMaticIntoToken",
      "outputs": [],
      "stateMutability": "nonpayable",
      "type": "function"
    },
    {
      "inputs": [
        {
          "internalType": "bytes32",
          "name": "role",
          "type": "bytes32"
        },
        {
          "internalType": "address",
          "name": "account",
          "type": "address"
        }
      ],
      "name": "hasRole",
      "outputs": [
        {
          "internalType": "bool",
          "name": "",
          "type": "bool"
        }
      ],
      "stateMutability": "view",
      "type": "function"
    },
    {
      "inputs": [
        {
          "internalType": "address",
          "name": "spender",
          "type": "address"
        },
        {
          "internalType": "uint256",
          "name": "addedValue",
          "type": "uint256"
        }
      ],
      "name": "increaseAllowance",
      "outputs": [
        {
          "internalType": "bool",
          "name": "",
          "type": "bool"
        }
      ],
      "stateMutability": "nonpayable",
      "type": "function"
    },
    {
      "inputs": [
        {
          "internalType": "uint256",
          "name": "collateral",
          "type": "uint256"
        },
        {
          "internalType": "uint256",
          "name": "starting_ratio",
          "type": "uint256"
        }
      ],
      "name": "initialize",
      "outputs": [],
      "stateMutability": "nonpayable",
      "type": "function"
    },
    {
      "inputs": [],
      "name": "initialized",
      "outputs": [
        {
          "internalType": "bool",
          "name": "",
          "type": "bool"
        }
      ],
      "stateMutability": "view",
      "type": "function"
    },
    {
      "inputs": [],
      "name": "markup",
      "outputs": [
        {
          "internalType": "uint256",
          "name": "",
          "type": "uint256"
        }
      ],
      "stateMutability": "view",
      "type": "function"
    },
    {
      "inputs": [],
      "name": "markup_decimals",
      "outputs": [
        {
          "internalType": "uint8",
          "name": "",
          "type": "uint8"
        }
      ],
      "stateMutability": "view",
      "type": "function"
    },
    {
      "inputs": [
        {
          "internalType": "address",
          "name": "to",
          "type": "address"
        },
        {
          "internalType": "uint256",
          "name": "amount",
          "type": "uint256"
        }
      ],
      "name": "mint",
      "outputs": [],
      "stateMutability": "nonpayable",
      "type": "function"
    },
    {
      "inputs": [],
      "name": "name",
      "outputs": [
        {
          "internalType": "string",
          "name": "",
          "type": "string"
        }
      ],
      "stateMutability": "view",
      "type": "function"
    },
    {
      "inputs": [
        {
          "internalType": "address",
          "name": "owner",
          "type": "address"
        }
      ],
      "name": "nonces",
      "outputs": [
        {
          "internalType": "uint256",
          "name": "",
          "type": "uint256"
        }
      ],
      "stateMutability": "view",
      "type": "function"
    },
    {
      "inputs": [
        {
          "internalType": "address",
          "name": "owner",
          "type": "address"
        },
        {
          "internalType": "address",
          "name": "spender",
          "type": "address"
        },
        {
          "internalType": "uint256",
          "name": "value",
          "type": "uint256"
        },
        {
          "internalType": "uint256",
          "name": "deadline",
          "type": "uint256"
        },
        {
          "internalType": "uint8",
          "name": "v",
          "type": "uint8"
        },
        {
          "internalType": "bytes32",
          "name": "r",
          "type": "bytes32"
        },
        {
          "internalType": "bytes32",
          "name": "s",
          "type": "bytes32"
        }
      ],
      "name": "permit",
      "outputs": [],
      "stateMutability": "nonpayable",
      "type": "function"
    },
    {
      "inputs": [
        {
          "internalType": "bytes32",
          "name": "role",
          "type": "bytes32"
        },
        {
          "internalType": "address",
          "name": "account",
          "type": "address"
        }
      ],
      "name": "renounceRole",
      "outputs": [],
      "stateMutability": "nonpayable",
      "type": "function"
    },
    {
      "inputs": [
        {
          "internalType": "bytes32",
          "name": "role",
          "type": "bytes32"
        },
        {
          "internalType": "address",
          "name": "account",
          "type": "address"
        }
      ],
      "name": "revokeRole",
      "outputs": [],
      "stateMutability": "nonpayable",
      "type": "function"
    },
    {
      "inputs": [
        {
          "internalType": "uint256",
          "name": "markup_",
          "type": "uint256"
        }
      ],
      "name": "setMarkup",
      "outputs": [],
      "stateMutability": "nonpayable",
      "type": "function"
    },
    {
      "inputs": [
        {
          "internalType": "bytes4",
          "name": "interfaceId",
          "type": "bytes4"
        }
      ],
      "name": "supportsInterface",
      "outputs": [
        {
          "internalType": "bool",
          "name": "",
          "type": "bool"
        }
      ],
      "stateMutability": "view",
      "type": "function"
    },
    {
      "inputs": [],
      "name": "symbol",
      "outputs": [
        {
          "internalType": "string",
          "name": "",
          "type": "string"
        }
      ],
      "stateMutability": "view",
      "type": "function"
    },
    {
      "inputs": [],
      "name": "totalSupply",
      "outputs": [
        {
          "internalType": "uint256",
          "name": "",
          "type": "uint256"
        }
      ],
      "stateMutability": "view",
      "type": "function"
    },
    {
      "inputs": [
        {
          "internalType": "address",
          "name": "recipient",
          "type": "address"
        },
        {
          "internalType": "uint256",
          "name": "amount",
          "type": "uint256"
        }
      ],
      "name": "transfer",
      "outputs": [
        {
          "internalType": "bool",
          "name": "",
          "type": "bool"
        }
      ],
      "stateMutability": "nonpayable",
      "type": "function"
    },
    {
      "inputs": [
        {
          "internalType": "address",
          "name": "sender",
          "type": "address"
        },
        {
          "internalType": "address",
          "name": "recipient",
          "type": "address"
        },
        {
          "internalType": "uint256",
          "name": "amount",
          "type": "uint256"
        }
      ],
      "name": "transferFrom",
      "outputs": [
        {
          "internalType": "bool",
          "name": "",
          "type": "bool"
        }
      ],
      "stateMutability": "nonpayable",
      "type": "function"
    },
    {
      "inputs": [],
      "name": "uniswap_router_address",
      "outputs": [
        {
          "internalType": "address",
          "name": "",
          "type": "address"
        }
      ],
      "stateMutability": "view",
      "type": "function"
    },
    {
      "inputs": [
        {
          "internalType": "address",
          "name": "to",
          "type": "address"
        },
        {
          "internalType": "uint256",
          "name": "amount",
          "type": "uint256"
        }
      ],
      "name": "withdraw",
      "outputs": [],
      "stateMutability": "nonpayable",
      "type": "function"
    },
    {
      "inputs": [],
      "name": "wmatic_address",
      "outputs": [
        {
          "internalType": "address",
          "name": "",
          "type": "address"
        }
      ],
      "stateMutability": "view",
      "type": "function"
    }
  ],
  "transactionHash": "0x62b32549f0811b7a14a59bdd8b3b9682f08ffb5c950e475c69c4f1a964b87342",
  "args": [
    "PE FAKE",
    "PEFAKE",
    "0xbd21a10f619be90d6066c941b04e340841f1f989",
    "0xf8744c0bd8c7adea522d6dde2298b17284a79d1b",
    "0x9198F13B08E299d85E096929fA9781A1E3d5d827",
    "0x9c3c9283d3e44854697cd22d3faa240cfb032889",
    "0xf927d61228059ae9d6b7D48f253769e1Ccff1c33",
    "0xd41aE58e803Edf4304334acCE4DC4Ec34a63C644"
  ],
  "numDeployments": 1,
  "solcInputHash": "6c4f4ba13bf43012fbcc51bf31b7a6c6",
  "bytecode": "0x6102006040527f6e71edae12b1b97f4d1f60370fef10105fa2faae0126114a169c64845d6126c961012052620000386004600a62000577565b6200004590600562000643565b6007556008805460ff191690557f74a064b2dec4aeb0b53e2d06f8e76ce531a17302a866fe51bc86d9a90b4e85e36009557f5407862f04286ebe607684514c14b7fffc750b6bf52ba44ea49569174845a5bd600a55348015620000a757600080fd5b506040516200399838038062003998833981016040819052620000ca9162000457565b8780604051806040016040528060018152602001603160f81b8152508a8a816003908051906020019062000100929190620002e1565b50805162000116906004906020840190620002e1565b5050825160209384012082519284019290922060c083815260e08290524660a0818152604080517f8b73c3c69bb8fe3d512ecc4cf759cc79239f7b179b0ffacaa9a75d522b39400f818a01819052818301989098526060808201969096526080808201949094523081840152815180820390930183529093019092528151919095012090935250610100526001600160601b031985821b81166101a05288821b81166101c05287821b81166101e05284821b81166101805286821b8116610160529083901b166101405250620001ee6000336200021a565b600954620001fd90336200021a565b600a546200020c90336200021a565b5050505050505050620006ce565b6200022682826200022a565b5050565b620002368282620002b4565b620002265760008281526006602090815260408083206001600160a01b03851684529091529020805460ff19166001179055620002703390565b6001600160a01b0316816001600160a01b0316837f2f8788117e7eff1d82e926ec794901d17c78024a50270940304540a733656f0d60405160405180910390a45050565b60008281526006602090815260408083206001600160a01b038516845290915290205460ff165b92915050565b828054620002ef9062000665565b90600052602060002090601f0160209004810192826200031357600085556200035e565b82601f106200032e57805160ff19168380011785556200035e565b828001600101855582156200035e579182015b828111156200035e57825182559160200191906001019062000341565b506200036c92915062000370565b5090565b5b808211156200036c576000815560010162000371565b80516001600160a01b03811681146200039f57600080fd5b919050565b600082601f830112620003b5578081fd5b81516001600160401b0380821115620003d257620003d2620006b8565b604051601f8301601f19908116603f01168101908282118183101715620003fd57620003fd620006b8565b8160405283815260209250868385880101111562000419578485fd5b8491505b838210156200043c57858201830151818301840152908201906200041d565b838211156200044d57848385830101525b9695505050505050565b600080600080600080600080610100898b03121562000474578384fd5b88516001600160401b03808211156200048b578586fd5b620004998c838d01620003a4565b995060208b0151915080821115620004af578586fd5b50620004be8b828c01620003a4565b975050620004cf60408a0162000387565b9550620004df60608a0162000387565b9450620004ef60808a0162000387565b9350620004ff60a08a0162000387565b92506200050f60c08a0162000387565b91506200051f60e08a0162000387565b90509295985092959890939650565b600181815b808511156200056f578160001904821115620005535762000553620006a2565b808516156200056157918102915b93841c939080029062000533565b509250929050565b60006200058860ff8416836200058f565b9392505050565b600082620005a057506001620002db565b81620005af57506000620002db565b8160018114620005c85760028114620005d357620005f3565b6001915050620002db565b60ff841115620005e757620005e7620006a2565b50506001821b620002db565b5060208310610133831016604e8410600b841016171562000618575081810a620002db565b6200062483836200052e565b80600019048211156200063b576200063b620006a2565b029392505050565b6000816000190483118215151615620006605762000660620006a2565b500290565b600181811c908216806200067a57607f821691505b602082108114156200069c57634e487b7160e01b600052602260045260246000fd5b50919050565b634e487b7160e01b600052601160045260246000fd5b634e487b7160e01b600052604160045260246000fd5b60805160a05160c05160e05161010051610120516101405160601c6101605160601c6101805160601c6101a05160601c6101c05160601c6101e05160601c613177620008216000396000818161039401528181610c81015281816111f9015261220f0152600081816102f7015281816108390152818161098b01528181610a1c01528181610a7101528181610e99015281816114660152818161148c0152818161164f015281816119d801528181611a6c01526122a30152600081816103f90152818161072201526107d70152600081816104cc0152818161089701526108c601526000818161057a01528181610a3e01528181610a93015281816119a901528181611aa8015281816121e001526122d801526000818161047f0152610c4b015260006112cf01526000611daa01526000611df901526000611dd401526000611d5801526000611d8101526131776000f3fe608060405234801561001057600080fd5b50600436106102745760003560e01c806370a0823111610151578063a9059cbb116100c3578063ce3a0b0411610087578063ce3a0b0414610575578063d505accf1461059c578063d547741f146105af578063dd62ed3e146105c2578063e4a30116146105fb578063f3fef3a31461060e57600080fd5b8063a9059cbb14610540578063b4eae1cb14610553578063c5a926561461055b578063c98c05b714610564578063ca4fb87c1461056c57600080fd5b80638b9789c9116101155780638b9789c9146104ee5780638f8396031461050157806391d148541461050a57806395d89b411461051d578063a217fddf14610525578063a457c2d71461052d57600080fd5b806370a082311461045157806374c189da1461047a57806379cc6790146104a15780637ecebe00146104b45780638a29dc95146104c757600080fd5b806332001bd2116101ea578063399c0425116101ae578063399c0425146103ec5780633eb5cf98146103f457806340c10f191461041b57806342966c681461042e578063535334b0146104415780635891de721461044957600080fd5b806332001bd21461038f5780633644e515146103b657806336568abe146103be578063377d7c9f146103d157806339509351146103d957600080fd5b806319f7a8411161023c57806319f7a841146102e85780631eaa0e17146102f257806323b872dd14610331578063248a9ca3146103445780632f2ff15d14610367578063313ce5671461037a57600080fd5b806301ffc9a71461027957806306fdde03146102a1578063095ea7b3146102b6578063158ef93e146102c957806318160ddd146102d6575b600080fd5b61028c610287366004612cf0565b610621565b60405190151581526020015b60405180910390f35b6102a9610658565b6040516102989190612e9e565b61028c6102c4366004612bad565b6106ea565b60085461028c9060ff1681565b6002545b604051908152602001610298565b6102f0610700565b005b6103197f000000000000000000000000000000000000000000000000000000000000000081565b6040516001600160a01b039091168152602001610298565b61028c61033f366004612b06565b610ac9565b6102da610352366004612cb6565b60009081526006602052604090206001015490565b6102f0610375366004612cce565b610b7a565b60065b60405160ff9091168152602001610298565b6103197f000000000000000000000000000000000000000000000000000000000000000081565b6102da610ba0565b6102f06103cc366004612cce565b610baf565b6102f0610c2d565b61028c6103e7366004612bad565b610de3565b6102da610e1f565b6103197f000000000000000000000000000000000000000000000000000000000000000081565b6102f0610429366004612bad565b610e6f565b6102f061043c366004612cb6565b610f2c565b61037d600481565b6102da610f39565b6102da61045f366004612aba565b6001600160a01b031660009081526020819052604090205490565b6103197f000000000000000000000000000000000000000000000000000000000000000081565b6102f06104af366004612bad565b610fc6565b6102da6104c2366004612aba565b611047565b6103197f000000000000000000000000000000000000000000000000000000000000000081565b6102f06104fc366004612cb6565b611065565b6102da60095481565b61028c610518366004612cce565b611078565b6102a96110a3565b6102da600081565b61028c61053b366004612bad565b6110b2565b61028c61054e366004612bad565b61114b565b6102da611158565b6102da60075481565b6102da6111e1565b6102da600a5481565b6103197f000000000000000000000000000000000000000000000000000000000000000081565b6102f06105aa366004612b41565b61127b565b6102f06105bd366004612cce565b6113df565b6102da6105d0366004612ad4565b6001600160a01b03918216600090815260016020908152604080832093909416825291909152205490565b6102f0610609366004612d30565b611405565b6102f061061c366004612bad565b61161a565b60006001600160e01b03198216637965db0b60e01b148061065257506301ffc9a760e01b6001600160e01b03198316145b92915050565b606060038054610667906130d1565b80601f0160208091040260200160405190810160405280929190818152602001828054610693906130d1565b80156106e05780601f106106b5576101008083540402835291602001916106e0565b820191906000526020600020905b8154815290600101906020018083116106c357829003601f168201915b5050505050905090565b60006106f73384846116a7565b50600192915050565b600a5461070d81336117cb565b6040516370a0823160e01b81523060048201527f0000000000000000000000000000000000000000000000000000000000000000906000906001600160a01b038316906370a082319060240160206040518083038186803b15801561077157600080fd5b505afa158015610785573d6000803e3d6000fd5b505050506040513d601f19601f820116820180604052508101906107a99190612d18565b90506002811115610ac4576040805160028082526060820183526000926020830190803683370190505090507f00000000000000000000000000000000000000000000000000000000000000008160008151811061081757634e487b7160e01b600052603260045260246000fd5b60200260200101906001600160a01b031690816001600160a01b0316815250507f00000000000000000000000000000000000000000000000000000000000000008160018151811061087957634e487b7160e01b600052603260045260246000fd5b6001600160a01b0392831660209182029290920101526108bc9084167f00000000000000000000000000000000000000000000000000000000000000008461182f565b6001600160a01b037f0000000000000000000000000000000000000000000000000000000000000000166338ed173983600084306108fc42610708611986565b6040518663ffffffff1660e01b815260040161091c959493929190612ed1565b600060405180830381600087803b15801561093657600080fd5b505af115801561094a573d6000803e3d6000fd5b505050506040513d6000823e601f3d908101601f191682016040526109729190810190612bd6565b506040516370a0823160e01b81523060048201526000907f00000000000000000000000000000000000000000000000000000000000000006001600160a01b0316906370a082319060240160206040518083038186803b1580156109d557600080fd5b505afa1580156109e9573d6000803e3d6000fd5b505050506040513d601f19601f82011682018060405250810190610a0d9190612d18565b9050610a646001600160a01b037f0000000000000000000000000000000000000000000000000000000000000000167f0000000000000000000000000000000000000000000000000000000000000000600061182f565b610ab86001600160a01b037f0000000000000000000000000000000000000000000000000000000000000000167f00000000000000000000000000000000000000000000000000000000000000008361182f565b610ac181611992565b50505b505050565b6000610ad6848484611b00565b6001600160a01b038416600090815260016020908152604080832033845290915290205482811015610b605760405162461bcd60e51b815260206004820152602860248201527f45524332303a207472616e7366657220616d6f756e74206578636565647320616044820152676c6c6f77616e636560c01b60648201526084015b60405180910390fd5b610b6d85338584036116a7565b60019150505b9392505050565b600082815260066020526040902060010154610b9681336117cb565b610ac48383611cce565b6000610baa611d54565b905090565b6001600160a01b0381163314610c1f5760405162461bcd60e51b815260206004820152602f60248201527f416363657373436f6e74726f6c3a2063616e206f6e6c792072656e6f756e636560448201526e103937b632b9903337b91039b2b63360891b6064820152608401610b57565b610c298282611e47565b5050565b600a54610c3a81336117cb565b6040805160018082528183019092527f00000000000000000000000000000000000000000000000000000000000000009160009190602080830190803683370190505090507f000000000000000000000000000000000000000000000000000000000000000081600081518110610cc157634e487b7160e01b600052603260045260246000fd5b6001600160a01b0392831660209182029290920101526040516345accf9360e11b8152600091841690638b599f2690610d009085903090600401612e41565b60206040518083038186803b158015610d1857600080fd5b505afa158015610d2c573d6000803e3d6000fd5b505050506040513d601f19601f82011682018060405250810190610d509190612d18565b90506002811115610ddd57604051633111e7b360e01b81526001600160a01b03841690633111e7b390610d8b90859085903090600401612e6b565b602060405180830381600087803b158015610da557600080fd5b505af1158015610db9573d6000803e3d6000fd5b505050506040513d601f19601f82011682018060405250810190610ac19190612d18565b50505050565b3360008181526001602090815260408083206001600160a01b038716845290915281205490916106f7918590610e1a908690612f0d565b6116a7565b600080610e2a611158565b90506000610e5c610e3d60046002612f25565b610e4890600a612fad565b600754610e56908590611eae565b90611eba565b9050610e688183612f0d565b9250505090565b6000610e92610e806006600a612fad565b610e5684610e8c610e1f565b90611eae565b9050610ec97f00000000000000000000000000000000000000000000000000000000000000006001600160a01b0316333084611ec6565b610ed282611992565b610edc8383611efe565b7f25b428dfde728ccfaddad7e29e4ac23c24ed7fd1a6e3e3f91894a9a073f5dfff335b604080516001600160a01b03909216825260208201849052810184905260600160405180910390a1505050565b610f363382611fdd565b50565b6000610baa610f466111e1565b610e56610f556006600a612fad565b306001600160a01b03166318160ddd6040518163ffffffff1660e01b815260040160206040518083038186803b158015610f8e57600080fd5b505afa158015610fa2573d6000803e3d6000fd5b505050506040513d601f19601f82011682018060405250810190610e8c9190612d18565b6000610fd283336105d0565b9050818110156110305760405162461bcd60e51b8152602060048201526024808201527f45524332303a206275726e20616d6f756e74206578636565647320616c6c6f77604482015263616e636560e01b6064820152608401610b57565b61103d83338484036116a7565b610ac48383611fdd565b6001600160a01b038116600090815260056020526040812054610652565b60095461107281336117cb565b50600755565b60009182526006602090815260408084206001600160a01b0393909316845291905290205460ff1690565b606060048054610667906130d1565b3360009081526001602090815260408083206001600160a01b0386168452909152812054828110156111345760405162461bcd60e51b815260206004820152602560248201527f45524332303a2064656372656173656420616c6c6f77616e63652062656c6f77604482015264207a65726f60d81b6064820152608401610b57565b61114133858584036116a7565b5060019392505050565b60006106f7338484611b00565b6000610baa306001600160a01b03166318160ddd6040518163ffffffff1660e01b815260040160206040518083038186803b15801561119657600080fd5b505afa1580156111aa573d6000803e3d6000fd5b505050506040513d601f19601f820116820180604052508101906111ce9190612d18565b610e566111dd6006600a612fad565b610e8c5b6040516370a0823160e01b81523060048201526000907f00000000000000000000000000000000000000000000000000000000000000006001600160a01b0316906370a082319060240160206040518083038186803b15801561124357600080fd5b505afa158015611257573d6000803e3d6000fd5b505050506040513d601f19601f82011682018060405250810190610baa9190612d18565b834211156112cb5760405162461bcd60e51b815260206004820152601d60248201527f45524332305065726d69743a206578706972656420646561646c696e650000006044820152606401610b57565b60007f00000000000000000000000000000000000000000000000000000000000000008888886112fa8c61212b565b6040805160208101969096526001600160a01b0394851690860152929091166060840152608083015260a082015260c0810186905260e001604051602081830303815290604052805190602001209050600061135582612153565b90506000611365828787876121a1565b9050896001600160a01b0316816001600160a01b0316146113c85760405162461bcd60e51b815260206004820152601e60248201527f45524332305065726d69743a20696e76616c6964207369676e617475726500006044820152606401610b57565b6113d38a8a8a6116a7565b50505050505050505050565b6000828152600660205260409020600101546113fb81336117cb565b610ac48383611e47565b600061141181336117cb565b60085460ff16156114645760405162461bcd60e51b815260206004820152601c60248201527f436f6e747261637420616c726561647920696e697469616c697a6564000000006044820152606401610b57565b7f0000000000000000000000000000000000000000000000000000000000000000600660ff167f00000000000000000000000000000000000000000000000000000000000000006001600160a01b031663313ce5676040518163ffffffff1660e01b815260040160206040518083038186803b1580156114e357600080fd5b505afa1580156114f7573d6000803e3d6000fd5b505050506040513d601f19601f8201168201806040525081019061151b9190612d51565b60ff16146115865760405162461bcd60e51b815260206004820152603260248201527f446563696d616c732066726f6d20636f6c6c61746572616c20616e64207468696044820152710e6408aa486646040daeae6e840dac2e8c6d60731b6064820152608401610b57565b61159b6001600160a01b038216333087611ec6565b6115a484611992565b6115b7336115b28587611eae565b611efe565b6008805460ff191660011790557f0f91882b50d9330af0b1d4998e6af7f2eaee90ce7e77ea54fea089af166d021d6115ec3390565b604080516001600160a01b03909216825260208201879052810185905260600160405180910390a150505050565b600061163761162b6006600a612fad565b610e5684610e8c611158565b9050611642826121c9565b6116766001600160a01b037f0000000000000000000000000000000000000000000000000000000000000000168483612354565b6116803383611fdd565b7fdf273cb619d95419a9cd0ec88123a0538c85064229baa6363788f743fff90deb33610eff565b6001600160a01b0383166117095760405162461bcd60e51b8152602060048201526024808201527f45524332303a20617070726f76652066726f6d20746865207a65726f206164646044820152637265737360e01b6064820152608401610b57565b6001600160a01b03821661176a5760405162461bcd60e51b815260206004820152602260248201527f45524332303a20617070726f766520746f20746865207a65726f206164647265604482015261737360f01b6064820152608401610b57565b6001600160a01b0383811660008181526001602090815260408083209487168084529482529182902085905590518481527f8c5be1e5ebec7d5bd14f71427d1e84f3dd0314c0f7b2291e5b200ac8c7c3b925910160405180910390a3505050565b6117d58282611078565b610c29576117ed816001600160a01b03166014612384565b6117f8836020612384565b604051602001611809929190612dcc565b60408051601f198184030181529082905262461bcd60e51b8252610b5791600401612e9e565b8015806118b85750604051636eb1769f60e11b81523060048201526001600160a01b03838116602483015284169063dd62ed3e9060440160206040518083038186803b15801561187e57600080fd5b505afa158015611892573d6000803e3d6000fd5b505050506040513d601f19601f820116820180604052508101906118b69190612d18565b155b6119235760405162461bcd60e51b815260206004820152603660248201527f5361666545524332303a20617070726f76652066726f6d206e6f6e2d7a65726f60448201527520746f206e6f6e2d7a65726f20616c6c6f77616e636560501b6064820152608401610b57565b6040516001600160a01b038316602482015260448101829052610ac490849063095ea7b360e01b906064015b60408051601f198184030181529190526020810180516001600160e01b03166001600160e01b031990931692909217909152612566565b6000610b738284612f0d565b60405163095ea7b360e01b81526001600160a01b037f000000000000000000000000000000000000000000000000000000000000000081166004830152602482018390527f0000000000000000000000000000000000000000000000000000000000000000169063095ea7b390604401602060405180830381600087803b158015611a1c57600080fd5b505af1158015611a30573d6000803e3d6000fd5b505050506040513d601f19601f82011682018060405250810190611a549190612c96565b5060405163e8eda9df60e01b81526001600160a01b037f00000000000000000000000000000000000000000000000000000000000000008116600483015260248201839052306044830152600060648301527f0000000000000000000000000000000000000000000000000000000000000000169063e8eda9df90608401600060405180830381600087803b158015611aec57600080fd5b505af1158015610ac1573d6000803e3d6000fd5b6001600160a01b038316611b645760405162461bcd60e51b815260206004820152602560248201527f45524332303a207472616e736665722066726f6d20746865207a65726f206164604482015264647265737360d81b6064820152608401610b57565b6001600160a01b038216611bc65760405162461bcd60e51b815260206004820152602360248201527f45524332303a207472616e7366657220746f20746865207a65726f206164647260448201526265737360e81b6064820152608401610b57565b6001600160a01b03831660009081526020819052604090205481811015611c3e5760405162461bcd60e51b815260206004820152602660248201527f45524332303a207472616e7366657220616d6f756e7420657863656564732062604482015265616c616e636560d01b6064820152608401610b57565b6001600160a01b03808516600090815260208190526040808220858503905591851681529081208054849290611c75908490612f0d565b92505081905550826001600160a01b0316846001600160a01b03167fddf252ad1be2c89b69c2b068fc378daa952ba7f163c4a11628f55a4df523b3ef84604051611cc191815260200190565b60405180910390a3610ddd565b611cd88282611078565b610c295760008281526006602090815260408083206001600160a01b03851684529091529020805460ff19166001179055611d103390565b6001600160a01b0316816001600160a01b0316837f2f8788117e7eff1d82e926ec794901d17c78024a50270940304540a733656f0d60405160405180910390a45050565b60007f0000000000000000000000000000000000000000000000000000000000000000461415611da357507f000000000000000000000000000000000000000000000000000000000000000090565b50604080517f00000000000000000000000000000000000000000000000000000000000000006020808301919091527f0000000000000000000000000000000000000000000000000000000000000000828401527f000000000000000000000000000000000000000000000000000000000000000060608301524660808301523060a0808401919091528351808403909101815260c0909201909252805191012090565b611e518282611078565b15610c295760008281526006602090815260408083206001600160a01b0385168085529252808320805460ff1916905551339285917ff6391f5c32d9c69d2a47ea670b442974b53935d1edc7fd64eb21e047a839171b9190a45050565b6000610b738284613058565b6000610b738284612f4a565b6040516001600160a01b0380851660248301528316604482015260648101829052610ddd9085906323b872dd60e01b9060840161194f565b6001600160a01b038216611f545760405162461bcd60e51b815260206004820152601f60248201527f45524332303a206d696e7420746f20746865207a65726f2061646472657373006044820152606401610b57565b8060026000828254611f669190612f0d565b90915550506001600160a01b03821660009081526020819052604081208054839290611f93908490612f0d565b90915550506040518181526001600160a01b038316906000907fddf252ad1be2c89b69c2b068fc378daa952ba7f163c4a11628f55a4df523b3ef9060200160405180910390a35050565b6001600160a01b03821661203d5760405162461bcd60e51b815260206004820152602160248201527f45524332303a206275726e2066726f6d20746865207a65726f206164647265736044820152607360f81b6064820152608401610b57565b6001600160a01b038216600090815260208190526040902054818110156120b15760405162461bcd60e51b815260206004820152602260248201527f45524332303a206275726e20616d6f756e7420657863656564732062616c616e604482015261636560f01b6064820152608401610b57565b6001600160a01b03831660009081526020819052604081208383039055600280548492906120e0908490613077565b90915550506040518281526000906001600160a01b038516907fddf252ad1be2c89b69c2b068fc378daa952ba7f163c4a11628f55a4df523b3ef9060200160405180910390a3505050565b6001600160a01b03811660009081526005602052604090208054600181018255905b50919050565b6000610652612160611d54565b8360405161190160f01b6020820152602281018390526042810182905260009060620160405160208183030381529060405280519060200120905092915050565b60008060006121b287878787612638565b915091506121bf81612725565b5095945050505050565b60405163095ea7b360e01b81526001600160a01b037f000000000000000000000000000000000000000000000000000000000000000081166004830152602482018390527f0000000000000000000000000000000000000000000000000000000000000000169063095ea7b390604401602060405180830381600087803b15801561225357600080fd5b505af1158015612267573d6000803e3d6000fd5b505050506040513d601f19601f8201168201806040525081019061228b9190612c96565b50604051631a4ca37b60e21b81526001600160a01b037f000000000000000000000000000000000000000000000000000000000000000081166004830152602482018390523060448301527f000000000000000000000000000000000000000000000000000000000000000016906369328dec90606401602060405180830381600087803b15801561231c57600080fd5b505af1158015612330573d6000803e3d6000fd5b505050506040513d601f19601f82011682018060405250810190610c299190612d18565b6040516001600160a01b038316602482015260448101829052610ac490849063a9059cbb60e01b9060640161194f565b60606000612393836002613058565b61239e906002612f0d565b67ffffffffffffffff8111156123c457634e487b7160e01b600052604160045260246000fd5b6040519080825280601f01601f1916602001820160405280156123ee576020820181803683370190505b509050600360fc1b8160008151811061241757634e487b7160e01b600052603260045260246000fd5b60200101906001600160f81b031916908160001a905350600f60fb1b8160018151811061245457634e487b7160e01b600052603260045260246000fd5b60200101906001600160f81b031916908160001a9053506000612478846002613058565b612483906001612f0d565b90505b6001811115612517576f181899199a1a9b1b9c1cb0b131b232b360811b85600f16601081106124c557634e487b7160e01b600052603260045260246000fd5b1a60f81b8282815181106124e957634e487b7160e01b600052603260045260246000fd5b60200101906001600160f81b031916908160001a90535060049490941c93612510816130ba565b9050612486565b508315610b735760405162461bcd60e51b815260206004820181905260248201527f537472696e67733a20686578206c656e67746820696e73756666696369656e746044820152606401610b57565b60006125bb826040518060400160405280602081526020017f5361666545524332303a206c6f772d6c6576656c2063616c6c206661696c6564815250856001600160a01b03166129269092919063ffffffff16565b805190915015610ac457808060200190518101906125d99190612c96565b610ac45760405162461bcd60e51b815260206004820152602a60248201527f5361666545524332303a204552433230206f7065726174696f6e20646964206e6044820152691bdd081cdd58d8d9595960b21b6064820152608401610b57565b6000807f7fffffffffffffffffffffffffffffff5d576e7357a4501ddfe92f46681b20a083111561266f575060009050600361271c565b8460ff16601b1415801561268757508460ff16601c14155b15612698575060009050600461271c565b6040805160008082526020820180845289905260ff881692820192909252606081018690526080810185905260019060a0016020604051602081039080840390855afa1580156126ec573d6000803e3d6000fd5b5050604051601f1901519150506001600160a01b0381166127155760006001925092505061271c565b9150600090505b94509492505050565b600081600481111561274757634e487b7160e01b600052602160045260246000fd5b14156127505750565b600181600481111561277257634e487b7160e01b600052602160045260246000fd5b14156127c05760405162461bcd60e51b815260206004820152601860248201527f45434453413a20696e76616c6964207369676e617475726500000000000000006044820152606401610b57565b60028160048111156127e257634e487b7160e01b600052602160045260246000fd5b14156128305760405162461bcd60e51b815260206004820152601f60248201527f45434453413a20696e76616c6964207369676e6174757265206c656e677468006044820152606401610b57565b600381600481111561285257634e487b7160e01b600052602160045260246000fd5b14156128ab5760405162461bcd60e51b815260206004820152602260248201527f45434453413a20696e76616c6964207369676e6174757265202773272076616c604482015261756560f01b6064820152608401610b57565b60048160048111156128cd57634e487b7160e01b600052602160045260246000fd5b1415610f365760405162461bcd60e51b815260206004820152602260248201527f45434453413a20696e76616c6964207369676e6174757265202776272076616c604482015261756560f01b6064820152608401610b57565b6060612935848460008561293d565b949350505050565b60608247101561299e5760405162461bcd60e51b815260206004820152602660248201527f416464726573733a20696e73756666696369656e742062616c616e636520666f6044820152651c8818d85b1b60d21b6064820152608401610b57565b843b6129ec5760405162461bcd60e51b815260206004820152601d60248201527f416464726573733a2063616c6c20746f206e6f6e2d636f6e74726163740000006044820152606401610b57565b600080866001600160a01b03168587604051612a089190612db0565b60006040518083038185875af1925050503d8060008114612a45576040519150601f19603f3d011682016040523d82523d6000602084013e612a4a565b606091505b5091509150612a5a828286612a65565b979650505050505050565b60608315612a74575081610b73565b825115612a845782518084602001fd5b8160405162461bcd60e51b8152600401610b579190612e9e565b80356001600160a01b0381168114612ab557600080fd5b919050565b600060208284031215612acb578081fd5b610b7382612a9e565b60008060408385031215612ae6578081fd5b612aef83612a9e565b9150612afd60208401612a9e565b90509250929050565b600080600060608486031215612b1a578081fd5b612b2384612a9e565b9250612b3160208501612a9e565b9150604084013590509250925092565b600080600080600080600060e0888a031215612b5b578283fd5b612b6488612a9e565b9650612b7260208901612a9e565b955060408801359450606088013593506080880135612b9081613132565b9699959850939692959460a0840135945060c09093013592915050565b60008060408385031215612bbf578182fd5b612bc883612a9e565b946020939093013593505050565b60006020808385031215612be8578182fd5b825167ffffffffffffffff80821115612bff578384fd5b818501915085601f830112612c12578384fd5b815181811115612c2457612c2461311c565b8060051b604051601f19603f83011681018181108582111715612c4957612c4961311c565b604052828152858101935084860182860187018a1015612c67578788fd5b8795505b83861015612c89578051855260019590950194938601938601612c6b565b5098975050505050505050565b600060208284031215612ca7578081fd5b81518015158114610b73578182fd5b600060208284031215612cc7578081fd5b5035919050565b60008060408385031215612ce0578182fd5b82359150612afd60208401612a9e565b600060208284031215612d01578081fd5b81356001600160e01b031981168114610b73578182fd5b600060208284031215612d29578081fd5b5051919050565b60008060408385031215612d42578182fd5b50508035926020909101359150565b600060208284031215612d62578081fd5b8151610b7381613132565b6000815180845260208085019450808401835b83811015612da55781516001600160a01b031687529582019590820190600101612d80565b509495945050505050565b60008251612dc281846020870161308e565b9190910192915050565b7f416363657373436f6e74726f6c3a206163636f756e7420000000000000000000815260008351612e0481601785016020880161308e565b7001034b99036b4b9b9b4b733903937b6329607d1b6017918401918201528351612e3581602884016020880161308e565b01602801949350505050565b604081526000612e546040830185612d6d565b905060018060a01b03831660208301529392505050565b606081526000612e7e6060830186612d6d565b6020830194909452506001600160a01b0391909116604090910152919050565b6020815260008251806020840152612ebd81604085016020870161308e565b601f01601f19169190910160400192915050565b85815284602082015260a060408201526000612ef060a0830186612d6d565b6001600160a01b0394909416606083015250608001529392505050565b60008219821115612f2057612f20613106565b500190565b600060ff821660ff84168060ff03821115612f4257612f42613106565b019392505050565b600082612f6557634e487b7160e01b81526012600452602481fd5b500490565b600181815b80851115612fa5578160001904821115612f8b57612f8b613106565b80851615612f9857918102915b93841c9390800290612f6f565b509250929050565b6000610b7360ff841683600082612fc657506001610652565b81612fd357506000610652565b8160018114612fe95760028114612ff35761300f565b6001915050610652565b60ff84111561300457613004613106565b50506001821b610652565b5060208310610133831016604e8410600b8410161715613032575081810a610652565b61303c8383612f6a565b806000190482111561305057613050613106565b029392505050565b600081600019048311821515161561307257613072613106565b500290565b60008282101561308957613089613106565b500390565b60005b838110156130a9578181015183820152602001613091565b83811115610ddd5750506000910152565b6000816130c9576130c9613106565b506000190190565b600181811c908216806130e557607f821691505b6020821081141561214d57634e487b7160e01b600052602260045260246000fd5b634e487b7160e01b600052601160045260246000fd5b634e487b7160e01b600052604160045260246000fd5b60ff81168114610f3657600080fdfea2646970667358221220fe8f11d27a0f4ee3bfd2783f4168195f9e8d3c578069d447a9542c38e297d2dc64736f6c63430008040033",
  "devdoc": {
    "kind": "dev",
    "methods": {
      "DOMAIN_SEPARATOR()": {
        "details": "See {IERC20Permit-DOMAIN_SEPARATOR}."
      },
      "allowance(address,address)": {
        "details": "See {IERC20-allowance}."
      },
      "approve(address,uint256)": {
        "details": "See {IERC20-approve}. Requirements: - `spender` cannot be the zero address."
      },
      "balanceOf(address)": {
        "details": "See {IERC20-balanceOf}."
      },
      "burn(uint256)": {
        "details": "Destroys `amount` tokens from the caller. See {ERC20-_burn}."
      },
      "burnFrom(address,uint256)": {
        "details": "Destroys `amount` tokens from `account`, deducting from the caller's allowance. See {ERC20-_burn} and {ERC20-allowance}. Requirements: - the caller must have allowance for ``accounts``'s tokens of at least `amount`."
      },
      "decimals()": {
        "details": "Returns the number of decimals used to get its user representation. For example, if `decimals` equals `2`, a balance of `505` tokens should be displayed to a user as `5.05` (`505 / 10 ** 2`). Tokens usually opt for a value of 18, imitating the relationship between Ether and Wei. This is the value {ERC20} uses, unless this function is overridden; NOTE: This information is only used for _display_ purposes: it in no way affects any of the arithmetic of the contract, including {IERC20-balanceOf} and {IERC20-transfer}."
      },
      "decreaseAllowance(address,uint256)": {
        "details": "Atomically decreases the allowance granted to `spender` by the caller. This is an alternative to {approve} that can be used as a mitigation for problems described in {IERC20-approve}. Emits an {Approval} event indicating the updated allowance. Requirements: - `spender` cannot be the zero address. - `spender` must have allowance for the caller of at least `subtractedValue`."
      },
      "getRoleAdmin(bytes32)": {
        "details": "Returns the admin role that controls `role`. See {grantRole} and {revokeRole}. To change a role's admin, use {_setRoleAdmin}."
      },
      "grantRole(bytes32,address)": {
        "details": "Grants `role` to `account`. If `account` had not been already granted `role`, emits a {RoleGranted} event. Requirements: - the caller must have ``role``'s admin role."
      },
      "hasRole(bytes32,address)": {
        "details": "Returns `true` if `account` has been granted `role`."
      },
      "increaseAllowance(address,uint256)": {
        "details": "Atomically increases the allowance granted to `spender` by the caller. This is an alternative to {approve} that can be used as a mitigation for problems described in {IERC20-approve}. Emits an {Approval} event indicating the updated allowance. Requirements: - `spender` cannot be the zero address."
      },
      "name()": {
        "details": "Returns the name of the token."
      },
      "nonces(address)": {
        "details": "See {IERC20Permit-nonces}."
      },
      "permit(address,address,uint256,uint256,uint8,bytes32,bytes32)": {
        "details": "See {IERC20Permit-permit}."
      },
      "renounceRole(bytes32,address)": {
        "details": "Revokes `role` from the calling account. Roles are often managed via {grantRole} and {revokeRole}: this function's purpose is to provide a mechanism for accounts to lose their privileges if they are compromised (such as when a trusted device is misplaced). If the calling account had been granted `role`, emits a {RoleRevoked} event. Requirements: - the caller must be `account`."
      },
      "revokeRole(bytes32,address)": {
        "details": "Revokes `role` from `account`. If `account` had been granted `role`, emits a {RoleRevoked} event. Requirements: - the caller must have ``role``'s admin role."
      },
      "supportsInterface(bytes4)": {
        "details": "See {IERC165-supportsInterface}."
      },
      "symbol()": {
        "details": "Returns the symbol of the token, usually a shorter version of the name."
      },
      "totalSupply()": {
        "details": "See {IERC20-totalSupply}."
      },
      "transfer(address,uint256)": {
        "details": "See {IERC20-transfer}. Requirements: - `recipient` cannot be the zero address. - the caller must have a balance of at least `amount`."
      },
      "transferFrom(address,address,uint256)": {
        "details": "See {IERC20-transferFrom}. Emits an {Approval} event indicating the updated allowance. This is not required by the EIP. See the note at the beginning of {ERC20}. Requirements: - `sender` and `recipient` cannot be the zero address. - `sender` must have a balance of at least `amount`. - the caller must have allowance for ``sender``'s tokens of at least `amount`."
      }
    },
    "version": 1
  },
  "userdoc": {
    "kind": "user",
    "methods": {},
    "version": 1
  },
  "storageLayout": {
    "storage": [
      {
        "astId": 395,
        "contract": "contracts/ERC20Collateral.sol:ERC20Collateral",
        "label": "_balances",
        "offset": 0,
        "slot": "0",
        "type": "t_mapping(t_address,t_uint256)"
      },
      {
        "astId": 401,
        "contract": "contracts/ERC20Collateral.sol:ERC20Collateral",
        "label": "_allowances",
        "offset": 0,
        "slot": "1",
        "type": "t_mapping(t_address,t_mapping(t_address,t_uint256))"
      },
      {
        "astId": 403,
        "contract": "contracts/ERC20Collateral.sol:ERC20Collateral",
        "label": "_totalSupply",
        "offset": 0,
        "slot": "2",
        "type": "t_uint256"
      },
      {
        "astId": 405,
        "contract": "contracts/ERC20Collateral.sol:ERC20Collateral",
        "label": "_name",
        "offset": 0,
        "slot": "3",
        "type": "t_string_storage"
      },
      {
        "astId": 407,
        "contract": "contracts/ERC20Collateral.sol:ERC20Collateral",
        "label": "_symbol",
        "offset": 0,
        "slot": "4",
        "type": "t_string_storage"
      },
      {
        "astId": 1113,
        "contract": "contracts/ERC20Collateral.sol:ERC20Collateral",
        "label": "_nonces",
        "offset": 0,
        "slot": "5",
        "type": "t_mapping(t_address,t_struct(Counter)1844_storage)"
      },
      {
        "astId": 24,
        "contract": "contracts/ERC20Collateral.sol:ERC20Collateral",
        "label": "_roles",
        "offset": 0,
        "slot": "6",
        "type": "t_mapping(t_bytes32,t_struct(RoleData)19_storage)"
      },
      {
        "astId": 3015,
        "contract": "contracts/ERC20Collateral.sol:ERC20Collateral",
        "label": "markup",
        "offset": 0,
        "slot": "7",
        "type": "t_uint256"
      },
      {
        "astId": 3018,
        "contract": "contracts/ERC20Collateral.sol:ERC20Collateral",
        "label": "initialized",
        "offset": 0,
        "slot": "8",
        "type": "t_bool"
      },
      {
        "astId": 3047,
        "contract": "contracts/ERC20Collateral.sol:ERC20Collateral",
        "label": "MARKUP_ROLE",
        "offset": 0,
        "slot": "9",
        "type": "t_bytes32"
      },
      {
        "astId": 3052,
        "contract": "contracts/ERC20Collateral.sol:ERC20Collateral",
        "label": "REWARDS_ROLE",
        "offset": 0,
        "slot": "10",
        "type": "t_bytes32"
      }
    ],
    "types": {
      "t_address": {
        "encoding": "inplace",
        "label": "address",
        "numberOfBytes": "20"
      },
      "t_bool": {
        "encoding": "inplace",
        "label": "bool",
        "numberOfBytes": "1"
      },
      "t_bytes32": {
        "encoding": "inplace",
        "label": "bytes32",
        "numberOfBytes": "32"
      },
      "t_mapping(t_address,t_bool)": {
        "encoding": "mapping",
        "key": "t_address",
        "label": "mapping(address => bool)",
        "numberOfBytes": "32",
        "value": "t_bool"
      },
      "t_mapping(t_address,t_mapping(t_address,t_uint256))": {
        "encoding": "mapping",
        "key": "t_address",
        "label": "mapping(address => mapping(address => uint256))",
        "numberOfBytes": "32",
        "value": "t_mapping(t_address,t_uint256)"
      },
      "t_mapping(t_address,t_struct(Counter)1844_storage)": {
        "encoding": "mapping",
        "key": "t_address",
        "label": "mapping(address => struct Counters.Counter)",
        "numberOfBytes": "32",
        "value": "t_struct(Counter)1844_storage"
      },
      "t_mapping(t_address,t_uint256)": {
        "encoding": "mapping",
        "key": "t_address",
        "label": "mapping(address => uint256)",
        "numberOfBytes": "32",
        "value": "t_uint256"
      },
      "t_mapping(t_bytes32,t_struct(RoleData)19_storage)": {
        "encoding": "mapping",
        "key": "t_bytes32",
        "label": "mapping(bytes32 => struct AccessControl.RoleData)",
        "numberOfBytes": "32",
        "value": "t_struct(RoleData)19_storage"
      },
      "t_string_storage": {
        "encoding": "bytes",
        "label": "string",
        "numberOfBytes": "32"
      },
      "t_struct(Counter)1844_storage": {
        "encoding": "inplace",
        "label": "struct Counters.Counter",
        "members": [
          {
            "astId": 1843,
            "contract": "contracts/ERC20Collateral.sol:ERC20Collateral",
            "label": "_value",
            "offset": 0,
            "slot": "0",
            "type": "t_uint256"
          }
        ],
        "numberOfBytes": "32"
      },
      "t_struct(RoleData)19_storage": {
        "encoding": "inplace",
        "label": "struct AccessControl.RoleData",
        "members": [
          {
            "astId": 16,
            "contract": "contracts/ERC20Collateral.sol:ERC20Collateral",
            "label": "members",
            "offset": 0,
            "slot": "0",
            "type": "t_mapping(t_address,t_bool)"
          },
          {
            "astId": 18,
            "contract": "contracts/ERC20Collateral.sol:ERC20Collateral",
            "label": "adminRole",
            "offset": 0,
            "slot": "1",
            "type": "t_bytes32"
          }
        ],
        "numberOfBytes": "64"
      },
      "t_uint256": {
        "encoding": "inplace",
        "label": "uint256",
        "numberOfBytes": "32"
      }
    }
  }
}