{
  "address": "0xF9FaD769665C17C8E32f1178AfcF2cBD354bba9B",
  "abi": [
    {
      "inputs": [
        {
          "internalType": "string",
          "name": "name_",
          "type": "string"
        },
        {
          "internalType": "string",
          "name": "symbol_",
          "type": "string"
        },
        {
          "internalType": "address",
          "name": "collateral_address_",
          "type": "address"
        },
        {
          "internalType": "address",
          "name": "collateral_aave_address_",
          "type": "address"
        },
        {
          "internalType": "address",
          "name": "aave_lending_pool_address_",
          "type": "address"
        },
        {
          "internalType": "address",
          "name": "wmatic_address_",
          "type": "address"
        },
        {
          "internalType": "address",
          "name": "uniswap_router_address_",
          "type": "address"
        },
        {
          "internalType": "address",
          "name": "aave_incentive_address_",
          "type": "address"
        }
      ],
      "stateMutability": "nonpayable",
      "type": "constructor"
    },
    {
      "anonymous": false,
      "inputs": [
        {
          "indexed": true,
          "internalType": "address",
          "name": "owner",
          "type": "address"
        },
        {
          "indexed": true,
          "internalType": "address",
          "name": "spender",
          "type": "address"
        },
        {
          "indexed": false,
          "internalType": "uint256",
          "name": "value",
          "type": "uint256"
        }
      ],
      "name": "Approval",
      "type": "event"
    },
    {
      "anonymous": false,
      "inputs": [
        {
          "indexed": false,
          "internalType": "uint256",
          "name": "claimed",
          "type": "uint256"
        }
      ],
      "name": "ClaimedRewards",
      "type": "event"
    },
    {
      "anonymous": false,
      "inputs": [
        {
          "indexed": false,
          "internalType": "uint256",
          "name": "wmatic",
          "type": "uint256"
        },
        {
          "indexed": false,
          "internalType": "uint256",
          "name": "collateral",
          "type": "uint256"
        }
      ],
      "name": "HarvestedMatic",
      "type": "event"
    },
    {
      "anonymous": false,
      "inputs": [
        {
          "indexed": false,
          "internalType": "address",
          "name": "owner",
          "type": "address"
        },
        {
          "indexed": false,
          "internalType": "uint256",
          "name": "collateral",
          "type": "uint256"
        },
        {
          "indexed": false,
          "internalType": "uint256",
          "name": "starting_ratio",
          "type": "uint256"
        }
      ],
      "name": "Initialized",
      "type": "event"
    },
    {
      "anonymous": false,
      "inputs": [
        {
          "indexed": false,
          "internalType": "address",
          "name": "operator",
          "type": "address"
        },
        {
          "indexed": false,
          "internalType": "uint256",
          "name": "markup",
          "type": "uint256"
        }
      ],
      "name": "MarkupUpdated",
      "type": "event"
    },
    {
      "anonymous": false,
      "inputs": [
        {
          "indexed": false,
          "internalType": "address",
          "name": "to",
          "type": "address"
        },
        {
          "indexed": false,
          "internalType": "uint256",
          "name": "collateralAmount",
          "type": "uint256"
        },
        {
          "indexed": false,
          "internalType": "uint256",
          "name": "tokenAmount",
          "type": "uint256"
        }
      ],
      "name": "Minted",
      "type": "event"
    },
    {
      "anonymous": false,
      "inputs": [
        {
          "indexed": true,
          "internalType": "bytes32",
          "name": "role",
          "type": "bytes32"
        },
        {
          "indexed": true,
          "internalType": "bytes32",
          "name": "previousAdminRole",
          "type": "bytes32"
        },
        {
          "indexed": true,
          "internalType": "bytes32",
          "name": "newAdminRole",
          "type": "bytes32"
        }
      ],
      "name": "RoleAdminChanged",
      "type": "event"
    },
    {
      "anonymous": false,
      "inputs": [
        {
          "indexed": true,
          "internalType": "bytes32",
          "name": "role",
          "type": "bytes32"
        },
        {
          "indexed": true,
          "internalType": "address",
          "name": "account",
          "type": "address"
        },
        {
          "indexed": true,
          "internalType": "address",
          "name": "sender",
          "type": "address"
        }
      ],
      "name": "RoleGranted",
      "type": "event"
    },
    {
      "anonymous": false,
      "inputs": [
        {
          "indexed": true,
          "internalType": "bytes32",
          "name": "role",
          "type": "bytes32"
        },
        {
          "indexed": true,
          "internalType": "address",
          "name": "account",
          "type": "address"
        },
        {
          "indexed": true,
          "internalType": "address",
          "name": "sender",
          "type": "address"
        }
      ],
      "name": "RoleRevoked",
      "type": "event"
    },
    {
      "anonymous": false,
      "inputs": [
        {
          "indexed": true,
          "internalType": "address",
          "name": "from",
          "type": "address"
        },
        {
          "indexed": true,
          "internalType": "address",
          "name": "to",
          "type": "address"
        },
        {
          "indexed": false,
          "internalType": "uint256",
          "name": "value",
          "type": "uint256"
        }
      ],
      "name": "Transfer",
      "type": "event"
    },
    {
      "anonymous": false,
      "inputs": [
        {
          "indexed": false,
          "internalType": "address",
          "name": "to",
          "type": "address"
        },
        {
          "indexed": false,
          "internalType": "uint256",
          "name": "collateralAmount",
          "type": "uint256"
        },
        {
          "indexed": false,
          "internalType": "uint256",
          "name": "tokenAmount",
          "type": "uint256"
        }
      ],
      "name": "Withdrawal",
      "type": "event"
    },
    {
      "inputs": [],
      "name": "DEFAULT_ADMIN_ROLE",
      "outputs": [
        {
          "internalType": "bytes32",
          "name": "",
          "type": "bytes32"
        }
      ],
      "stateMutability": "view",
      "type": "function"
    },
    {
      "inputs": [],
      "name": "DOMAIN_SEPARATOR",
      "outputs": [
        {
          "internalType": "bytes32",
          "name": "",
          "type": "bytes32"
        }
      ],
      "stateMutability": "view",
      "type": "function"
    },
    {
      "inputs": [],
      "name": "MARKUP_ROLE",
      "outputs": [
        {
          "internalType": "bytes32",
          "name": "",
          "type": "bytes32"
        }
      ],
      "stateMutability": "view",
      "type": "function"
    },
    {
      "inputs": [],
      "name": "REWARDS_ROLE",
      "outputs": [
        {
          "internalType": "bytes32",
          "name": "",
          "type": "bytes32"
        }
      ],
      "stateMutability": "view",
      "type": "function"
    },
    {
      "inputs": [],
      "name": "aave_incentive_address",
      "outputs": [
        {
          "internalType": "address",
          "name": "",
          "type": "address"
        }
      ],
      "stateMutability": "view",
      "type": "function"
    },
    {
      "inputs": [],
      "name": "aave_lending_pool_address",
      "outputs": [
        {
          "internalType": "address",
          "name": "",
          "type": "address"
        }
      ],
      "stateMutability": "view",
      "type": "function"
    },
    {
      "inputs": [
        {
          "internalType": "address",
          "name": "owner",
          "type": "address"
        },
        {
          "internalType": "address",
          "name": "spender",
          "type": "address"
        }
      ],
      "name": "allowance",
      "outputs": [
        {
          "internalType": "uint256",
          "name": "",
          "type": "uint256"
        }
      ],
      "stateMutability": "view",
      "type": "function"
    },
    {
      "inputs": [
        {
          "internalType": "address",
          "name": "spender",
          "type": "address"
        },
        {
          "internalType": "uint256",
          "name": "amount",
          "type": "uint256"
        }
      ],
      "name": "approve",
      "outputs": [
        {
          "internalType": "bool",
          "name": "",
          "type": "bool"
        }
      ],
      "stateMutability": "nonpayable",
      "type": "function"
    },
    {
      "inputs": [
        {
          "internalType": "address",
          "name": "account",
          "type": "address"
        }
      ],
      "name": "balanceOf",
      "outputs": [
        {
          "internalType": "uint256",
          "name": "",
          "type": "uint256"
        }
      ],
      "stateMutability": "view",
      "type": "function"
    },
    {
      "inputs": [
        {
          "internalType": "uint256",
          "name": "amount",
          "type": "uint256"
        }
      ],
      "name": "burn",
      "outputs": [],
      "stateMutability": "nonpayable",
      "type": "function"
    },
    {
      "inputs": [
        {
          "internalType": "address",
          "name": "account",
          "type": "address"
        },
        {
          "internalType": "uint256",
          "name": "amount",
          "type": "uint256"
        }
      ],
      "name": "burnFrom",
      "outputs": [],
      "stateMutability": "nonpayable",
      "type": "function"
    },
    {
      "inputs": [],
      "name": "buyingPrice",
      "outputs": [
        {
          "internalType": "uint256",
          "name": "",
          "type": "uint256"
        }
      ],
      "stateMutability": "view",
      "type": "function"
    },
    {
      "inputs": [],
      "name": "claimAaveRewards",
      "outputs": [],
      "stateMutability": "nonpayable",
      "type": "function"
    },
    {
      "inputs": [],
      "name": "collateralBalance",
      "outputs": [
        {
          "internalType": "uint256",
          "name": "",
          "type": "uint256"
        }
      ],
      "stateMutability": "view",
      "type": "function"
    },
    {
      "inputs": [],
      "name": "collateralPrice",
      "outputs": [
        {
          "internalType": "uint256",
          "name": "",
          "type": "uint256"
        }
      ],
      "stateMutability": "view",
      "type": "function"
    },
    {
      "inputs": [],
      "name": "collateralRatio",
      "outputs": [
        {
          "internalType": "uint256",
          "name": "",
          "type": "uint256"
        }
      ],
      "stateMutability": "view",
      "type": "function"
    },
    {
      "inputs": [],
      "name": "collateral_aave_address",
      "outputs": [
        {
          "internalType": "address",
          "name": "",
          "type": "address"
        }
      ],
      "stateMutability": "view",
      "type": "function"
    },
    {
      "inputs": [],
      "name": "collateral_address",
      "outputs": [
        {
          "internalType": "address",
          "name": "",
          "type": "address"
        }
      ],
      "stateMutability": "view",
      "type": "function"
    },
    {
      "inputs": [],
      "name": "decimals",
      "outputs": [
        {
          "internalType": "uint8",
          "name": "",
          "type": "uint8"
        }
      ],
      "stateMutability": "view",
      "type": "function"
    },
    {
      "inputs": [
        {
          "internalType": "address",
          "name": "spender",
          "type": "address"
        },
        {
          "internalType": "uint256",
          "name": "subtractedValue",
          "type": "uint256"
        }
      ],
      "name": "decreaseAllowance",
      "outputs": [
        {
          "internalType": "bool",
          "name": "",
          "type": "bool"
        }
      ],
      "stateMutability": "nonpayable",
      "type": "function"
    },
    {
      "inputs": [
        {
          "internalType": "bytes32",
          "name": "role",
          "type": "bytes32"
        }
      ],
      "name": "getRoleAdmin",
      "outputs": [
        {
          "internalType": "bytes32",
          "name": "",
          "type": "bytes32"
        }
      ],
      "stateMutability": "view",
      "type": "function"
    },
    {
      "inputs": [
        {
          "internalType": "bytes32",
          "name": "role",
          "type": "bytes32"
        },
        {
          "internalType": "address",
          "name": "account",
          "type": "address"
        }
      ],
      "name": "grantRole",
      "outputs": [],
      "stateMutability": "nonpayable",
      "type": "function"
    },
    {
      "inputs": [],
      "name": "harvestMaticIntoToken",
      "outputs": [],
      "stateMutability": "nonpayable",
      "type": "function"
    },
    {
      "inputs": [
        {
          "internalType": "bytes32",
          "name": "role",
          "type": "bytes32"
        },
        {
          "internalType": "address",
          "name": "account",
          "type": "address"
        }
      ],
      "name": "hasRole",
      "outputs": [
        {
          "internalType": "bool",
          "name": "",
          "type": "bool"
        }
      ],
      "stateMutability": "view",
      "type": "function"
    },
    {
      "inputs": [
        {
          "internalType": "address",
          "name": "spender",
          "type": "address"
        },
        {
          "internalType": "uint256",
          "name": "addedValue",
          "type": "uint256"
        }
      ],
      "name": "increaseAllowance",
      "outputs": [
        {
          "internalType": "bool",
          "name": "",
          "type": "bool"
        }
      ],
      "stateMutability": "nonpayable",
      "type": "function"
    },
    {
      "inputs": [
        {
          "internalType": "uint256",
          "name": "collateral",
          "type": "uint256"
        },
        {
          "internalType": "uint256",
          "name": "starting_ratio",
          "type": "uint256"
        }
      ],
      "name": "initialize",
      "outputs": [],
      "stateMutability": "nonpayable",
      "type": "function"
    },
    {
      "inputs": [],
      "name": "initialized",
      "outputs": [
        {
          "internalType": "bool",
          "name": "",
          "type": "bool"
        }
      ],
      "stateMutability": "view",
      "type": "function"
    },
    {
      "inputs": [],
      "name": "markup",
      "outputs": [
        {
          "internalType": "uint256",
          "name": "",
          "type": "uint256"
        }
      ],
      "stateMutability": "view",
      "type": "function"
    },
    {
      "inputs": [],
      "name": "markup_decimals",
      "outputs": [
        {
          "internalType": "uint8",
          "name": "",
          "type": "uint8"
        }
      ],
      "stateMutability": "view",
      "type": "function"
    },
    {
      "inputs": [
        {
          "internalType": "address",
          "name": "to",
          "type": "address"
        },
        {
          "internalType": "uint256",
          "name": "amount",
          "type": "uint256"
        }
      ],
      "name": "mint",
      "outputs": [],
      "stateMutability": "nonpayable",
      "type": "function"
    },
    {
      "inputs": [],
      "name": "name",
      "outputs": [
        {
          "internalType": "string",
          "name": "",
          "type": "string"
        }
      ],
      "stateMutability": "view",
      "type": "function"
    },
    {
      "inputs": [
        {
          "internalType": "address",
          "name": "owner",
          "type": "address"
        }
      ],
      "name": "nonces",
      "outputs": [
        {
          "internalType": "uint256",
          "name": "",
          "type": "uint256"
        }
      ],
      "stateMutability": "view",
      "type": "function"
    },
    {
      "inputs": [
        {
          "internalType": "address",
          "name": "owner",
          "type": "address"
        },
        {
          "internalType": "address",
          "name": "spender",
          "type": "address"
        },
        {
          "internalType": "uint256",
          "name": "value",
          "type": "uint256"
        },
        {
          "internalType": "uint256",
          "name": "deadline",
          "type": "uint256"
        },
        {
          "internalType": "uint8",
          "name": "v",
          "type": "uint8"
        },
        {
          "internalType": "bytes32",
          "name": "r",
          "type": "bytes32"
        },
        {
          "internalType": "bytes32",
          "name": "s",
          "type": "bytes32"
        }
      ],
      "name": "permit",
      "outputs": [],
      "stateMutability": "nonpayable",
      "type": "function"
    },
    {
      "inputs": [
        {
          "internalType": "bytes32",
          "name": "role",
          "type": "bytes32"
        },
        {
          "internalType": "address",
          "name": "account",
          "type": "address"
        }
      ],
      "name": "renounceRole",
      "outputs": [],
      "stateMutability": "nonpayable",
      "type": "function"
    },
    {
      "inputs": [
        {
          "internalType": "bytes32",
          "name": "role",
          "type": "bytes32"
        },
        {
          "internalType": "address",
          "name": "account",
          "type": "address"
        }
      ],
      "name": "revokeRole",
      "outputs": [],
      "stateMutability": "nonpayable",
      "type": "function"
    },
    {
      "inputs": [
        {
          "internalType": "uint256",
          "name": "markup_",
          "type": "uint256"
        }
      ],
      "name": "setMarkup",
      "outputs": [],
      "stateMutability": "nonpayable",
      "type": "function"
    },
    {
      "inputs": [
        {
          "internalType": "bytes4",
          "name": "interfaceId",
          "type": "bytes4"
        }
      ],
      "name": "supportsInterface",
      "outputs": [
        {
          "internalType": "bool",
          "name": "",
          "type": "bool"
        }
      ],
      "stateMutability": "view",
      "type": "function"
    },
    {
      "inputs": [],
      "name": "symbol",
      "outputs": [
        {
          "internalType": "string",
          "name": "",
          "type": "string"
        }
      ],
      "stateMutability": "view",
      "type": "function"
    },
    {
      "inputs": [],
      "name": "totalSupply",
      "outputs": [
        {
          "internalType": "uint256",
          "name": "",
          "type": "uint256"
        }
      ],
      "stateMutability": "view",
      "type": "function"
    },
    {
      "inputs": [
        {
          "internalType": "address",
          "name": "recipient",
          "type": "address"
        },
        {
          "internalType": "uint256",
          "name": "amount",
          "type": "uint256"
        }
      ],
      "name": "transfer",
      "outputs": [
        {
          "internalType": "bool",
          "name": "",
          "type": "bool"
        }
      ],
      "stateMutability": "nonpayable",
      "type": "function"
    },
    {
      "inputs": [
        {
          "internalType": "address",
          "name": "sender",
          "type": "address"
        },
        {
          "internalType": "address",
          "name": "recipient",
          "type": "address"
        },
        {
          "internalType": "uint256",
          "name": "amount",
          "type": "uint256"
        }
      ],
      "name": "transferFrom",
      "outputs": [
        {
          "internalType": "bool",
          "name": "",
          "type": "bool"
        }
      ],
      "stateMutability": "nonpayable",
      "type": "function"
    },
    {
      "inputs": [],
      "name": "uniswap_router_address",
      "outputs": [
        {
          "internalType": "address",
          "name": "",
          "type": "address"
        }
      ],
      "stateMutability": "view",
      "type": "function"
    },
    {
      "inputs": [
        {
          "internalType": "address",
          "name": "to",
          "type": "address"
        },
        {
          "internalType": "uint256",
          "name": "amount",
          "type": "uint256"
        }
      ],
      "name": "withdraw",
      "outputs": [],
      "stateMutability": "nonpayable",
      "type": "function"
    },
    {
      "inputs": [],
      "name": "wmatic_address",
      "outputs": [
        {
          "internalType": "address",
          "name": "",
          "type": "address"
        }
      ],
      "stateMutability": "view",
      "type": "function"
    }
  ],
  "transactionHash": "0xed86ba305692395297eda023cc32aa0548f436295b501810743ae661c704a14a",
  "args": [
    "PE FAKE",
    "PEFAKE",
    "0xbd21a10f619be90d6066c941b04e340841f1f989",
    "0xf8744c0bd8c7adea522d6dde2298b17284a79d1b",
    "0x9198F13B08E299d85E096929fA9781A1E3d5d827",
    "0x9c3c9283d3e44854697cd22d3faa240cfb032889",
    "0xaeA7a906aC0538c35a67AAE81AE476815A940a9D",
    "0xd41aE58e803Edf4304334acCE4DC4Ec34a63C644"
  ],
  "numDeployments": 1,
  "solcInputHash": "1dc36036c53cb084b18b91b4fa9ce1cd",
  "bytecode": "0x6102006040527f6e71edae12b1b97f4d1f60370fef10105fa2faae0126114a169c64845d6126c961012052620000386004600a62000577565b6200004590600562000643565b6007556008805460ff191690557f74a064b2dec4aeb0b53e2d06f8e76ce531a17302a866fe51bc86d9a90b4e85e36009557f5407862f04286ebe607684514c14b7fffc750b6bf52ba44ea49569174845a5bd600a55348015620000a757600080fd5b5060405162003a4c38038062003a4c833981016040819052620000ca9162000457565b8780604051806040016040528060018152602001603160f81b8152508a8a816003908051906020019062000100929190620002e1565b50805162000116906004906020840190620002e1565b5050825160209384012082519284019290922060c083815260e08290524660a0818152604080517f8b73c3c69bb8fe3d512ecc4cf759cc79239f7b179b0ffacaa9a75d522b39400f818a01819052818301989098526060808201969096526080808201949094523081840152815180820390930183529093019092528151919095012090935250610100526001600160601b031985821b81166101a05288821b81166101c05287821b81166101e05284821b81166101805286821b8116610160529083901b166101405250620001ee6000336200021a565b600954620001fd90336200021a565b600a546200020c90336200021a565b5050505050505050620006ce565b6200022682826200022a565b5050565b620002368282620002b4565b620002265760008281526006602090815260408083206001600160a01b03851684529091529020805460ff19166001179055620002703390565b6001600160a01b0316816001600160a01b0316837f2f8788117e7eff1d82e926ec794901d17c78024a50270940304540a733656f0d60405160405180910390a45050565b60008281526006602090815260408083206001600160a01b038516845290915290205460ff165b92915050565b828054620002ef9062000665565b90600052602060002090601f0160209004810192826200031357600085556200035e565b82601f106200032e57805160ff19168380011785556200035e565b828001600101855582156200035e579182015b828111156200035e57825182559160200191906001019062000341565b506200036c92915062000370565b5090565b5b808211156200036c576000815560010162000371565b80516001600160a01b03811681146200039f57600080fd5b919050565b600082601f830112620003b5578081fd5b81516001600160401b0380821115620003d257620003d2620006b8565b604051601f8301601f19908116603f01168101908282118183101715620003fd57620003fd620006b8565b8160405283815260209250868385880101111562000419578485fd5b8491505b838210156200043c57858201830151818301840152908201906200041d565b838211156200044d57848385830101525b9695505050505050565b600080600080600080600080610100898b03121562000474578384fd5b88516001600160401b03808211156200048b578586fd5b620004998c838d01620003a4565b995060208b0151915080821115620004af578586fd5b50620004be8b828c01620003a4565b975050620004cf60408a0162000387565b9550620004df60608a0162000387565b9450620004ef60808a0162000387565b9350620004ff60a08a0162000387565b92506200050f60c08a0162000387565b91506200051f60e08a0162000387565b90509295985092959890939650565b600181815b808511156200056f578160001904821115620005535762000553620006a2565b808516156200056157918102915b93841c939080029062000533565b509250929050565b60006200058860ff8416836200058f565b9392505050565b600082620005a057506001620002db565b81620005af57506000620002db565b8160018114620005c85760028114620005d357620005f3565b6001915050620002db565b60ff841115620005e757620005e7620006a2565b50506001821b620002db565b5060208310610133831016604e8410600b841016171562000618575081810a620002db565b6200062483836200052e565b80600019048211156200063b576200063b620006a2565b029392505050565b6000816000190483118215151615620006605762000660620006a2565b500290565b600181811c908216806200067a57607f821691505b602082108114156200069c57634e487b7160e01b600052602260045260246000fd5b50919050565b634e487b7160e01b600052601160045260246000fd5b634e487b7160e01b600052604160045260246000fd5b60805160a05160c05160e05161010051610120516101405160601c6101605160601c6101805160601c6101a05160601c6101c05160601c6101e05160601c61322b620008216000396000818161039401528181610cba015281816112ae01526122c30152600081816102f7015281816108390152818161098b01528181610a1c01528181610a7101528181610f07015281816115200152818161161f015281816116fa01528181611a8301528181611b1701526123570152600081816103f90152818161072201526107d70152600081816104cc0152818161089701526108c601526000818161057a01528181610a3e01528181610a9301528181611a5401528181611b5301528181612294015261238c01526000818161047f0152610c840152600061138401526000611e5e01526000611ead01526000611e8801526000611e0c01526000611e35015261322b6000f3fe608060405234801561001057600080fd5b50600436106102745760003560e01c806370a0823111610151578063a9059cbb116100c3578063ce3a0b0411610087578063ce3a0b0414610575578063d505accf1461059c578063d547741f146105af578063dd62ed3e146105c2578063e4a30116146105fb578063f3fef3a31461060e57600080fd5b8063a9059cbb14610540578063b4eae1cb14610553578063c5a926561461055b578063c98c05b714610564578063ca4fb87c1461056c57600080fd5b80638b9789c9116101155780638b9789c9146104ee5780638f8396031461050157806391d148541461050a57806395d89b411461051d578063a217fddf14610525578063a457c2d71461052d57600080fd5b806370a082311461045157806374c189da1461047a57806379cc6790146104a15780637ecebe00146104b45780638a29dc95146104c757600080fd5b806332001bd2116101ea578063399c0425116101ae578063399c0425146103ec5780633eb5cf98146103f457806340c10f191461041b57806342966c681461042e578063535334b0146104415780635891de721461044957600080fd5b806332001bd21461038f5780633644e515146103b657806336568abe146103be578063377d7c9f146103d157806339509351146103d957600080fd5b806319f7a8411161023c57806319f7a841146102e85780631eaa0e17146102f257806323b872dd14610331578063248a9ca3146103445780632f2ff15d14610367578063313ce5671461037a57600080fd5b806301ffc9a71461027957806306fdde03146102a1578063095ea7b3146102b6578063158ef93e146102c957806318160ddd146102d6575b600080fd5b61028c610287366004612da4565b610621565b60405190151581526020015b60405180910390f35b6102a9610658565b6040516102989190612f52565b61028c6102c4366004612c61565b6106ea565b60085461028c9060ff1681565b6002545b604051908152602001610298565b6102f0610700565b005b6103197f000000000000000000000000000000000000000000000000000000000000000081565b6040516001600160a01b039091168152602001610298565b61028c61033f366004612bba565b610b02565b6102da610352366004612d6a565b60009081526006602052604090206001015490565b6102f0610375366004612d82565b610bb3565b60065b60405160ff9091168152602001610298565b6103197f000000000000000000000000000000000000000000000000000000000000000081565b6102da610bd9565b6102f06103cc366004612d82565b610be8565b6102f0610c66565b61028c6103e7366004612c61565b610e51565b6102da610e8d565b6103197f000000000000000000000000000000000000000000000000000000000000000081565b6102f0610429366004612c61565b610edd565b6102f061043c366004612d6a565b610f9b565b61037d600481565b6102da610fa8565b6102da61045f366004612b6e565b6001600160a01b031660009081526020819052604090205490565b6103197f000000000000000000000000000000000000000000000000000000000000000081565b6102f06104af366004612c61565b611035565b6102da6104c2366004612b6e565b6110b6565b6103197f000000000000000000000000000000000000000000000000000000000000000081565b6102f06104fc366004612d6a565b6110d4565b6102da60095481565b61028c610518366004612d82565b61112d565b6102a9611158565b6102da600081565b61028c61053b366004612c61565b611167565b61028c61054e366004612c61565b611200565b6102da61120d565b6102da60075481565b6102da611296565b6102da600a5481565b6103197f000000000000000000000000000000000000000000000000000000000000000081565b6102f06105aa366004612bf5565b611330565b6102f06105bd366004612d82565b611494565b6102da6105d0366004612b88565b6001600160a01b03918216600090815260016020908152604080832093909416825291909152205490565b6102f0610609366004612de4565b6114ba565b6102f061061c366004612c61565b6116c5565b60006001600160e01b03198216637965db0b60e01b148061065257506301ffc9a760e01b6001600160e01b03198316145b92915050565b60606003805461066790613185565b80601f016020809104026020016040519081016040528092919081815260200182805461069390613185565b80156106e05780601f106106b5576101008083540402835291602001916106e0565b820191906000526020600020905b8154815290600101906020018083116106c357829003601f168201915b5050505050905090565b60006106f7338484611752565b50600192915050565b600a5461070d8133611876565b6040516370a0823160e01b81523060048201527f0000000000000000000000000000000000000000000000000000000000000000906000906001600160a01b038316906370a082319060240160206040518083038186803b15801561077157600080fd5b505afa158015610785573d6000803e3d6000fd5b505050506040513d601f19601f820116820180604052508101906107a99190612dcc565b90506002811115610afd576040805160028082526060820183526000926020830190803683370190505090507f00000000000000000000000000000000000000000000000000000000000000008160008151811061081757634e487b7160e01b600052603260045260246000fd5b60200260200101906001600160a01b031690816001600160a01b0316815250507f00000000000000000000000000000000000000000000000000000000000000008160018151811061087957634e487b7160e01b600052603260045260246000fd5b6001600160a01b0392831660209182029290920101526108bc9084167f0000000000000000000000000000000000000000000000000000000000000000846118da565b6001600160a01b037f0000000000000000000000000000000000000000000000000000000000000000166338ed173983600084306108fc42610708611a31565b6040518663ffffffff1660e01b815260040161091c959493929190612f85565b600060405180830381600087803b15801561093657600080fd5b505af115801561094a573d6000803e3d6000fd5b505050506040513d6000823e601f3d908101601f191682016040526109729190810190612c8a565b506040516370a0823160e01b81523060048201526000907f00000000000000000000000000000000000000000000000000000000000000006001600160a01b0316906370a082319060240160206040518083038186803b1580156109d557600080fd5b505afa1580156109e9573d6000803e3d6000fd5b505050506040513d601f19601f82011682018060405250810190610a0d9190612dcc565b9050610a646001600160a01b037f0000000000000000000000000000000000000000000000000000000000000000167f000000000000000000000000000000000000000000000000000000000000000060006118da565b610ab86001600160a01b037f0000000000000000000000000000000000000000000000000000000000000000167f0000000000000000000000000000000000000000000000000000000000000000836118da565b610ac181611a3d565b60408051848152602081018390527f4baab667f0cc2f42bdb5461787e9f62ec026deec7b5d0b4fa5ec2fdfec5b0cd0910160405180910390a150505b505050565b6000610b0f848484611bb2565b6001600160a01b038416600090815260016020908152604080832033845290915290205482811015610b995760405162461bcd60e51b815260206004820152602860248201527f45524332303a207472616e7366657220616d6f756e74206578636565647320616044820152676c6c6f77616e636560c01b60648201526084015b60405180910390fd5b610ba68533858403611752565b60019150505b9392505050565b600082815260066020526040902060010154610bcf8133611876565b610afd8383611d82565b6000610be3611e08565b905090565b6001600160a01b0381163314610c585760405162461bcd60e51b815260206004820152602f60248201527f416363657373436f6e74726f6c3a2063616e206f6e6c792072656e6f756e636560448201526e103937b632b9903337b91039b2b63360891b6064820152608401610b90565b610c628282611efb565b5050565b600a54610c738133611876565b6040805160018082528183019092527f00000000000000000000000000000000000000000000000000000000000000009160009190602080830190803683370190505090507f000000000000000000000000000000000000000000000000000000000000000081600081518110610cfa57634e487b7160e01b600052603260045260246000fd5b6001600160a01b0392831660209182029290920101526040516345accf9360e11b8152600091841690638b599f2690610d399085903090600401612ef5565b60206040518083038186803b158015610d5157600080fd5b505afa158015610d65573d6000803e3d6000fd5b505050506040513d601f19601f82011682018060405250810190610d899190612dcc565b90506002811115610e1857604051633111e7b360e01b81526001600160a01b03841690633111e7b390610dc490859085903090600401612f1f565b602060405180830381600087803b158015610dde57600080fd5b505af1158015610df2573d6000803e3d6000fd5b505050506040513d601f19601f82011682018060405250810190610e169190612dcc565b505b6040518181527fbaff721654472c7678712abe6447438f26b27dbb4fc4e0b96fd8174ce684a4c99060200160405180910390a150505050565b3360008181526001602090815260408083206001600160a01b038716845290915281205490916106f7918590610e88908690612fc1565b611752565b600080610e9861120d565b90506000610eca610eab60046002612fd9565b610eb690600a613061565b600754610ec4908590611f62565b90611f6e565b9050610ed68183612fc1565b9250505090565b6000610f00610eee6006600a613061565b610ec484610efa610e8d565b90611f62565b9050610f377f00000000000000000000000000000000000000000000000000000000000000006001600160a01b0316333084611f7a565b610f4082611a3d565b610f4a8383611fb2565b7f25b428dfde728ccfaddad7e29e4ac23c24ed7fd1a6e3e3f91894a9a073f5dfff335b604080516001600160a01b0390921682526020820184905281018490526060015b60405180910390a1505050565b610fa53382612091565b50565b6000610be3610fb5611296565b610ec4610fc46006600a613061565b306001600160a01b03166318160ddd6040518163ffffffff1660e01b815260040160206040518083038186803b158015610ffd57600080fd5b505afa158015611011573d6000803e3d6000fd5b505050506040513d601f19601f82011682018060405250810190610efa9190612dcc565b600061104183336105d0565b90508181101561109f5760405162461bcd60e51b8152602060048201526024808201527f45524332303a206275726e20616d6f756e74206578636565647320616c6c6f77604482015263616e636560e01b6064820152608401610b90565b6110ac8333848403611752565b610afd8383612091565b6001600160a01b038116600090815260056020526040812054610652565b6009546110e18133611876565b60078290557fd1a3ca5ae3a8b741052365aa0dabdd2bb79673a49f36b3528d216cc5f948f1fb33604080516001600160a01b039092168252602082018590520160405180910390a15050565b60009182526006602090815260408084206001600160a01b0393909316845291905290205460ff1690565b60606004805461066790613185565b3360009081526001602090815260408083206001600160a01b0386168452909152812054828110156111e95760405162461bcd60e51b815260206004820152602560248201527f45524332303a2064656372656173656420616c6c6f77616e63652062656c6f77604482015264207a65726f60d81b6064820152608401610b90565b6111f63385858403611752565b5060019392505050565b60006106f7338484611bb2565b6000610be3306001600160a01b03166318160ddd6040518163ffffffff1660e01b815260040160206040518083038186803b15801561124b57600080fd5b505afa15801561125f573d6000803e3d6000fd5b505050506040513d601f19601f820116820180604052508101906112839190612dcc565b610ec46112926006600a613061565b610efa5b6040516370a0823160e01b81523060048201526000907f00000000000000000000000000000000000000000000000000000000000000006001600160a01b0316906370a082319060240160206040518083038186803b1580156112f857600080fd5b505afa15801561130c573d6000803e3d6000fd5b505050506040513d601f19601f82011682018060405250810190610be39190612dcc565b834211156113805760405162461bcd60e51b815260206004820152601d60248201527f45524332305065726d69743a206578706972656420646561646c696e650000006044820152606401610b90565b60007f00000000000000000000000000000000000000000000000000000000000000008888886113af8c6121df565b6040805160208101969096526001600160a01b0394851690860152929091166060840152608083015260a082015260c0810186905260e001604051602081830303815290604052805190602001209050600061140a82612207565b9050600061141a82878787612255565b9050896001600160a01b0316816001600160a01b03161461147d5760405162461bcd60e51b815260206004820152601e60248201527f45524332305065726d69743a20696e76616c6964207369676e617475726500006044820152606401610b90565b6114888a8a8a611752565b50505050505050505050565b6000828152600660205260409020600101546114b08133611876565b610afd8383611efb565b60006114c68133611876565b60085460ff16156115195760405162461bcd60e51b815260206004820152601c60248201527f436f6e747261637420616c726561647920696e697469616c697a6564000000006044820152606401610b90565b600660ff167f00000000000000000000000000000000000000000000000000000000000000006001600160a01b031663313ce5676040518163ffffffff1660e01b815260040160206040518083038186803b15801561157757600080fd5b505afa15801561158b573d6000803e3d6000fd5b505050506040513d601f19601f820116820180604052508101906115af9190612e05565b60ff161461161a5760405162461bcd60e51b815260206004820152603260248201527f446563696d616c732066726f6d20636f6c6c61746572616c20616e64207468696044820152710e6408aa486646040daeae6e840dac2e8c6d60731b6064820152608401610b90565b61164f7f00000000000000000000000000000000000000000000000000000000000000006001600160a01b0316333086611f7a565b61165883611a3d565b61166b336116668486611f62565b611fb2565b6008805460ff191660011790557f0f91882b50d9330af0b1d4998e6af7f2eaee90ce7e77ea54fea089af166d021d6116a03390565b604080516001600160a01b039092168252602082018690528101849052606001610f8e565b60006116e26116d66006600a613061565b610ec484610efa61120d565b90506116ed8261227d565b6117216001600160a01b037f0000000000000000000000000000000000000000000000000000000000000000168483612408565b61172b3383612091565b7fdf273cb619d95419a9cd0ec88123a0538c85064229baa6363788f743fff90deb33610f6d565b6001600160a01b0383166117b45760405162461bcd60e51b8152602060048201526024808201527f45524332303a20617070726f76652066726f6d20746865207a65726f206164646044820152637265737360e01b6064820152608401610b90565b6001600160a01b0382166118155760405162461bcd60e51b815260206004820152602260248201527f45524332303a20617070726f766520746f20746865207a65726f206164647265604482015261737360f01b6064820152608401610b90565b6001600160a01b0383811660008181526001602090815260408083209487168084529482529182902085905590518481527f8c5be1e5ebec7d5bd14f71427d1e84f3dd0314c0f7b2291e5b200ac8c7c3b925910160405180910390a3505050565b611880828261112d565b610c6257611898816001600160a01b03166014612438565b6118a3836020612438565b6040516020016118b4929190612e80565b60408051601f198184030181529082905262461bcd60e51b8252610b9091600401612f52565b8015806119635750604051636eb1769f60e11b81523060048201526001600160a01b03838116602483015284169063dd62ed3e9060440160206040518083038186803b15801561192957600080fd5b505afa15801561193d573d6000803e3d6000fd5b505050506040513d601f19601f820116820180604052508101906119619190612dcc565b155b6119ce5760405162461bcd60e51b815260206004820152603660248201527f5361666545524332303a20617070726f76652066726f6d206e6f6e2d7a65726f60448201527520746f206e6f6e2d7a65726f20616c6c6f77616e636560501b6064820152608401610b90565b6040516001600160a01b038316602482015260448101829052610afd90849063095ea7b360e01b906064015b60408051601f198184030181529190526020810180516001600160e01b03166001600160e01b03199093169290921790915261261a565b6000610bac8284612fc1565b60405163095ea7b360e01b81526001600160a01b037f000000000000000000000000000000000000000000000000000000000000000081166004830152602482018390527f0000000000000000000000000000000000000000000000000000000000000000169063095ea7b390604401602060405180830381600087803b158015611ac757600080fd5b505af1158015611adb573d6000803e3d6000fd5b505050506040513d601f19601f82011682018060405250810190611aff9190612d4a565b5060405163e8eda9df60e01b81526001600160a01b037f00000000000000000000000000000000000000000000000000000000000000008116600483015260248201839052306044830152600060648301527f0000000000000000000000000000000000000000000000000000000000000000169063e8eda9df90608401600060405180830381600087803b158015611b9757600080fd5b505af1158015611bab573d6000803e3d6000fd5b5050505050565b6001600160a01b038316611c165760405162461bcd60e51b815260206004820152602560248201527f45524332303a207472616e736665722066726f6d20746865207a65726f206164604482015264647265737360d81b6064820152608401610b90565b6001600160a01b038216611c785760405162461bcd60e51b815260206004820152602360248201527f45524332303a207472616e7366657220746f20746865207a65726f206164647260448201526265737360e81b6064820152608401610b90565b6001600160a01b03831660009081526020819052604090205481811015611cf05760405162461bcd60e51b815260206004820152602660248201527f45524332303a207472616e7366657220616d6f756e7420657863656564732062604482015265616c616e636560d01b6064820152608401610b90565b6001600160a01b03808516600090815260208190526040808220858503905591851681529081208054849290611d27908490612fc1565b92505081905550826001600160a01b0316846001600160a01b03167fddf252ad1be2c89b69c2b068fc378daa952ba7f163c4a11628f55a4df523b3ef84604051611d7391815260200190565b60405180910390a35b50505050565b611d8c828261112d565b610c625760008281526006602090815260408083206001600160a01b03851684529091529020805460ff19166001179055611dc43390565b6001600160a01b0316816001600160a01b0316837f2f8788117e7eff1d82e926ec794901d17c78024a50270940304540a733656f0d60405160405180910390a45050565b60007f0000000000000000000000000000000000000000000000000000000000000000461415611e5757507f000000000000000000000000000000000000000000000000000000000000000090565b50604080517f00000000000000000000000000000000000000000000000000000000000000006020808301919091527f0000000000000000000000000000000000000000000000000000000000000000828401527f000000000000000000000000000000000000000000000000000000000000000060608301524660808301523060a0808401919091528351808403909101815260c0909201909252805191012090565b611f05828261112d565b15610c625760008281526006602090815260408083206001600160a01b0385168085529252808320805460ff1916905551339285917ff6391f5c32d9c69d2a47ea670b442974b53935d1edc7fd64eb21e047a839171b9190a45050565b6000610bac828461310c565b6000610bac8284612ffe565b6040516001600160a01b0380851660248301528316604482015260648101829052611d7c9085906323b872dd60e01b906084016119fa565b6001600160a01b0382166120085760405162461bcd60e51b815260206004820152601f60248201527f45524332303a206d696e7420746f20746865207a65726f2061646472657373006044820152606401610b90565b806002600082825461201a9190612fc1565b90915550506001600160a01b03821660009081526020819052604081208054839290612047908490612fc1565b90915550506040518181526001600160a01b038316906000907fddf252ad1be2c89b69c2b068fc378daa952ba7f163c4a11628f55a4df523b3ef9060200160405180910390a35050565b6001600160a01b0382166120f15760405162461bcd60e51b815260206004820152602160248201527f45524332303a206275726e2066726f6d20746865207a65726f206164647265736044820152607360f81b6064820152608401610b90565b6001600160a01b038216600090815260208190526040902054818110156121655760405162461bcd60e51b815260206004820152602260248201527f45524332303a206275726e20616d6f756e7420657863656564732062616c616e604482015261636560f01b6064820152608401610b90565b6001600160a01b038316600090815260208190526040812083830390556002805484929061219490849061312b565b90915550506040518281526000906001600160a01b038516907fddf252ad1be2c89b69c2b068fc378daa952ba7f163c4a11628f55a4df523b3ef9060200160405180910390a3505050565b6001600160a01b03811660009081526005602052604090208054600181018255905b50919050565b6000610652612214611e08565b8360405161190160f01b6020820152602281018390526042810182905260009060620160405160208183030381529060405280519060200120905092915050565b6000806000612266878787876126ec565b91509150612273816127d9565b5095945050505050565b60405163095ea7b360e01b81526001600160a01b037f000000000000000000000000000000000000000000000000000000000000000081166004830152602482018390527f0000000000000000000000000000000000000000000000000000000000000000169063095ea7b390604401602060405180830381600087803b15801561230757600080fd5b505af115801561231b573d6000803e3d6000fd5b505050506040513d601f19601f8201168201806040525081019061233f9190612d4a565b50604051631a4ca37b60e21b81526001600160a01b037f000000000000000000000000000000000000000000000000000000000000000081166004830152602482018390523060448301527f000000000000000000000000000000000000000000000000000000000000000016906369328dec90606401602060405180830381600087803b1580156123d057600080fd5b505af11580156123e4573d6000803e3d6000fd5b505050506040513d601f19601f82011682018060405250810190610c629190612dcc565b6040516001600160a01b038316602482015260448101829052610afd90849063a9059cbb60e01b906064016119fa565b6060600061244783600261310c565b612452906002612fc1565b67ffffffffffffffff81111561247857634e487b7160e01b600052604160045260246000fd5b6040519080825280601f01601f1916602001820160405280156124a2576020820181803683370190505b509050600360fc1b816000815181106124cb57634e487b7160e01b600052603260045260246000fd5b60200101906001600160f81b031916908160001a905350600f60fb1b8160018151811061250857634e487b7160e01b600052603260045260246000fd5b60200101906001600160f81b031916908160001a905350600061252c84600261310c565b612537906001612fc1565b90505b60018111156125cb576f181899199a1a9b1b9c1cb0b131b232b360811b85600f166010811061257957634e487b7160e01b600052603260045260246000fd5b1a60f81b82828151811061259d57634e487b7160e01b600052603260045260246000fd5b60200101906001600160f81b031916908160001a90535060049490941c936125c48161316e565b905061253a565b508315610bac5760405162461bcd60e51b815260206004820181905260248201527f537472696e67733a20686578206c656e67746820696e73756666696369656e746044820152606401610b90565b600061266f826040518060400160405280602081526020017f5361666545524332303a206c6f772d6c6576656c2063616c6c206661696c6564815250856001600160a01b03166129da9092919063ffffffff16565b805190915015610afd578080602001905181019061268d9190612d4a565b610afd5760405162461bcd60e51b815260206004820152602a60248201527f5361666545524332303a204552433230206f7065726174696f6e20646964206e6044820152691bdd081cdd58d8d9595960b21b6064820152608401610b90565b6000807f7fffffffffffffffffffffffffffffff5d576e7357a4501ddfe92f46681b20a083111561272357506000905060036127d0565b8460ff16601b1415801561273b57508460ff16601c14155b1561274c57506000905060046127d0565b6040805160008082526020820180845289905260ff881692820192909252606081018690526080810185905260019060a0016020604051602081039080840390855afa1580156127a0573d6000803e3d6000fd5b5050604051601f1901519150506001600160a01b0381166127c9576000600192509250506127d0565b9150600090505b94509492505050565b60008160048111156127fb57634e487b7160e01b600052602160045260246000fd5b14156128045750565b600181600481111561282657634e487b7160e01b600052602160045260246000fd5b14156128745760405162461bcd60e51b815260206004820152601860248201527f45434453413a20696e76616c6964207369676e617475726500000000000000006044820152606401610b90565b600281600481111561289657634e487b7160e01b600052602160045260246000fd5b14156128e45760405162461bcd60e51b815260206004820152601f60248201527f45434453413a20696e76616c6964207369676e6174757265206c656e677468006044820152606401610b90565b600381600481111561290657634e487b7160e01b600052602160045260246000fd5b141561295f5760405162461bcd60e51b815260206004820152602260248201527f45434453413a20696e76616c6964207369676e6174757265202773272076616c604482015261756560f01b6064820152608401610b90565b600481600481111561298157634e487b7160e01b600052602160045260246000fd5b1415610fa55760405162461bcd60e51b815260206004820152602260248201527f45434453413a20696e76616c6964207369676e6174757265202776272076616c604482015261756560f01b6064820152608401610b90565b60606129e984846000856129f1565b949350505050565b606082471015612a525760405162461bcd60e51b815260206004820152602660248201527f416464726573733a20696e73756666696369656e742062616c616e636520666f6044820152651c8818d85b1b60d21b6064820152608401610b90565b843b612aa05760405162461bcd60e51b815260206004820152601d60248201527f416464726573733a2063616c6c20746f206e6f6e2d636f6e74726163740000006044820152606401610b90565b600080866001600160a01b03168587604051612abc9190612e64565b60006040518083038185875af1925050503d8060008114612af9576040519150601f19603f3d011682016040523d82523d6000602084013e612afe565b606091505b5091509150612b0e828286612b19565b979650505050505050565b60608315612b28575081610bac565b825115612b385782518084602001fd5b8160405162461bcd60e51b8152600401610b909190612f52565b80356001600160a01b0381168114612b6957600080fd5b919050565b600060208284031215612b7f578081fd5b610bac82612b52565b60008060408385031215612b9a578081fd5b612ba383612b52565b9150612bb160208401612b52565b90509250929050565b600080600060608486031215612bce578081fd5b612bd784612b52565b9250612be560208501612b52565b9150604084013590509250925092565b600080600080600080600060e0888a031215612c0f578283fd5b612c1888612b52565b9650612c2660208901612b52565b955060408801359450606088013593506080880135612c44816131e6565b9699959850939692959460a0840135945060c09093013592915050565b60008060408385031215612c73578182fd5b612c7c83612b52565b946020939093013593505050565b60006020808385031215612c9c578182fd5b825167ffffffffffffffff80821115612cb3578384fd5b818501915085601f830112612cc6578384fd5b815181811115612cd857612cd86131d0565b8060051b604051601f19603f83011681018181108582111715612cfd57612cfd6131d0565b604052828152858101935084860182860187018a1015612d1b578788fd5b8795505b83861015612d3d578051855260019590950194938601938601612d1f565b5098975050505050505050565b600060208284031215612d5b578081fd5b81518015158114610bac578182fd5b600060208284031215612d7b578081fd5b5035919050565b60008060408385031215612d94578182fd5b82359150612bb160208401612b52565b600060208284031215612db5578081fd5b81356001600160e01b031981168114610bac578182fd5b600060208284031215612ddd578081fd5b5051919050565b60008060408385031215612df6578182fd5b50508035926020909101359150565b600060208284031215612e16578081fd5b8151610bac816131e6565b6000815180845260208085019450808401835b83811015612e595781516001600160a01b031687529582019590820190600101612e34565b509495945050505050565b60008251612e76818460208701613142565b9190910192915050565b7f416363657373436f6e74726f6c3a206163636f756e7420000000000000000000815260008351612eb8816017850160208801613142565b7001034b99036b4b9b9b4b733903937b6329607d1b6017918401918201528351612ee9816028840160208801613142565b01602801949350505050565b604081526000612f086040830185612e21565b905060018060a01b03831660208301529392505050565b606081526000612f326060830186612e21565b6020830194909452506001600160a01b0391909116604090910152919050565b6020815260008251806020840152612f71816040850160208701613142565b601f01601f19169190910160400192915050565b85815284602082015260a060408201526000612fa460a0830186612e21565b6001600160a01b0394909416606083015250608001529392505050565b60008219821115612fd457612fd46131ba565b500190565b600060ff821660ff84168060ff03821115612ff657612ff66131ba565b019392505050565b60008261301957634e487b7160e01b81526012600452602481fd5b500490565b600181815b8085111561305957816000190482111561303f5761303f6131ba565b8085161561304c57918102915b93841c9390800290613023565b509250929050565b6000610bac60ff84168360008261307a57506001610652565b8161308757506000610652565b816001811461309d57600281146130a7576130c3565b6001915050610652565b60ff8411156130b8576130b86131ba565b50506001821b610652565b5060208310610133831016604e8410600b84101617156130e6575081810a610652565b6130f0838361301e565b8060001904821115613104576131046131ba565b029392505050565b6000816000190483118215151615613126576131266131ba565b500290565b60008282101561313d5761313d6131ba565b500390565b60005b8381101561315d578181015183820152602001613145565b83811115611d7c5750506000910152565b60008161317d5761317d6131ba565b506000190190565b600181811c9082168061319957607f821691505b6020821081141561220157634e487b7160e01b600052602260045260246000fd5b634e487b7160e01b600052601160045260246000fd5b634e487b7160e01b600052604160045260246000fd5b60ff81168114610fa557600080fdfea26469706673582212206d6831737b25f32ece5f63d3a1b701585a5255bfe0e6e186e75b319df73ab1c264736f6c63430008040033",
  "devdoc": {
    "kind": "dev",
    "methods": {
      "DOMAIN_SEPARATOR()": {
        "details": "See {IERC20Permit-DOMAIN_SEPARATOR}."
      },
      "allowance(address,address)": {
        "details": "See {IERC20-allowance}."
      },
      "approve(address,uint256)": {
        "details": "See {IERC20-approve}. Requirements: - `spender` cannot be the zero address."
      },
      "balanceOf(address)": {
        "details": "See {IERC20-balanceOf}."
      },
      "burn(uint256)": {
        "details": "Destroys `amount` tokens from the caller. See {ERC20-_burn}."
      },
      "burnFrom(address,uint256)": {
        "details": "Destroys `amount` tokens from `account`, deducting from the caller's allowance. See {ERC20-_burn} and {ERC20-allowance}. Requirements: - the caller must have allowance for ``accounts``'s tokens of at least `amount`."
      },
      "decimals()": {
        "details": "Returns the number of decimals used to get its user representation. For example, if `decimals` equals `2`, a balance of `505` tokens should be displayed to a user as `5.05` (`505 / 10 ** 2`). Tokens usually opt for a value of 18, imitating the relationship between Ether and Wei. This is the value {ERC20} uses, unless this function is overridden; NOTE: This information is only used for _display_ purposes: it in no way affects any of the arithmetic of the contract, including {IERC20-balanceOf} and {IERC20-transfer}."
      },
      "decreaseAllowance(address,uint256)": {
        "details": "Atomically decreases the allowance granted to `spender` by the caller. This is an alternative to {approve} that can be used as a mitigation for problems described in {IERC20-approve}. Emits an {Approval} event indicating the updated allowance. Requirements: - `spender` cannot be the zero address. - `spender` must have allowance for the caller of at least `subtractedValue`."
      },
      "getRoleAdmin(bytes32)": {
        "details": "Returns the admin role that controls `role`. See {grantRole} and {revokeRole}. To change a role's admin, use {_setRoleAdmin}."
      },
      "grantRole(bytes32,address)": {
        "details": "Grants `role` to `account`. If `account` had not been already granted `role`, emits a {RoleGranted} event. Requirements: - the caller must have ``role``'s admin role."
      },
      "hasRole(bytes32,address)": {
        "details": "Returns `true` if `account` has been granted `role`."
      },
      "increaseAllowance(address,uint256)": {
        "details": "Atomically increases the allowance granted to `spender` by the caller. This is an alternative to {approve} that can be used as a mitigation for problems described in {IERC20-approve}. Emits an {Approval} event indicating the updated allowance. Requirements: - `spender` cannot be the zero address."
      },
      "name()": {
        "details": "Returns the name of the token."
      },
      "nonces(address)": {
        "details": "See {IERC20Permit-nonces}."
      },
      "permit(address,address,uint256,uint256,uint8,bytes32,bytes32)": {
        "details": "See {IERC20Permit-permit}."
      },
      "renounceRole(bytes32,address)": {
        "details": "Revokes `role` from the calling account. Roles are often managed via {grantRole} and {revokeRole}: this function's purpose is to provide a mechanism for accounts to lose their privileges if they are compromised (such as when a trusted device is misplaced). If the calling account had been granted `role`, emits a {RoleRevoked} event. Requirements: - the caller must be `account`."
      },
      "revokeRole(bytes32,address)": {
        "details": "Revokes `role` from `account`. If `account` had been granted `role`, emits a {RoleRevoked} event. Requirements: - the caller must have ``role``'s admin role."
      },
      "supportsInterface(bytes4)": {
        "details": "See {IERC165-supportsInterface}."
      },
      "symbol()": {
        "details": "Returns the symbol of the token, usually a shorter version of the name."
      },
      "totalSupply()": {
        "details": "See {IERC20-totalSupply}."
      },
      "transfer(address,uint256)": {
        "details": "See {IERC20-transfer}. Requirements: - `recipient` cannot be the zero address. - the caller must have a balance of at least `amount`."
      },
      "transferFrom(address,address,uint256)": {
        "details": "See {IERC20-transferFrom}. Emits an {Approval} event indicating the updated allowance. This is not required by the EIP. See the note at the beginning of {ERC20}. Requirements: - `sender` and `recipient` cannot be the zero address. - `sender` must have a balance of at least `amount`. - the caller must have allowance for ``sender``'s tokens of at least `amount`."
      }
    },
    "version": 1
  },
  "userdoc": {
    "kind": "user",
    "methods": {},
    "version": 1
  },
  "storageLayout": {
    "storage": [
      {
        "astId": 395,
        "contract": "contracts/Peronio.sol:Peronio",
        "label": "_balances",
        "offset": 0,
        "slot": "0",
        "type": "t_mapping(t_address,t_uint256)"
      },
      {
        "astId": 401,
        "contract": "contracts/Peronio.sol:Peronio",
        "label": "_allowances",
        "offset": 0,
        "slot": "1",
        "type": "t_mapping(t_address,t_mapping(t_address,t_uint256))"
      },
      {
        "astId": 403,
        "contract": "contracts/Peronio.sol:Peronio",
        "label": "_totalSupply",
        "offset": 0,
        "slot": "2",
        "type": "t_uint256"
      },
      {
        "astId": 405,
        "contract": "contracts/Peronio.sol:Peronio",
        "label": "_name",
        "offset": 0,
        "slot": "3",
        "type": "t_string_storage"
      },
      {
        "astId": 407,
        "contract": "contracts/Peronio.sol:Peronio",
        "label": "_symbol",
        "offset": 0,
        "slot": "4",
        "type": "t_string_storage"
      },
      {
        "astId": 1113,
        "contract": "contracts/Peronio.sol:Peronio",
        "label": "_nonces",
        "offset": 0,
        "slot": "5",
        "type": "t_mapping(t_address,t_struct(Counter)1844_storage)"
      },
      {
        "astId": 24,
        "contract": "contracts/Peronio.sol:Peronio",
        "label": "_roles",
        "offset": 0,
        "slot": "6",
        "type": "t_mapping(t_bytes32,t_struct(RoleData)19_storage)"
      },
      {
        "astId": 3026,
        "contract": "contracts/Peronio.sol:Peronio",
        "label": "markup",
        "offset": 0,
        "slot": "7",
        "type": "t_uint256"
      },
      {
        "astId": 3030,
        "contract": "contracts/Peronio.sol:Peronio",
        "label": "initialized",
        "offset": 0,
        "slot": "8",
        "type": "t_bool"
      },
      {
        "astId": 3036,
        "contract": "contracts/Peronio.sol:Peronio",
        "label": "MARKUP_ROLE",
        "offset": 0,
        "slot": "9",
        "type": "t_bytes32"
      },
      {
        "astId": 3042,
        "contract": "contracts/Peronio.sol:Peronio",
        "label": "REWARDS_ROLE",
        "offset": 0,
        "slot": "10",
        "type": "t_bytes32"
      }
    ],
    "types": {
      "t_address": {
        "encoding": "inplace",
        "label": "address",
        "numberOfBytes": "20"
      },
      "t_bool": {
        "encoding": "inplace",
        "label": "bool",
        "numberOfBytes": "1"
      },
      "t_bytes32": {
        "encoding": "inplace",
        "label": "bytes32",
        "numberOfBytes": "32"
      },
      "t_mapping(t_address,t_bool)": {
        "encoding": "mapping",
        "key": "t_address",
        "label": "mapping(address => bool)",
        "numberOfBytes": "32",
        "value": "t_bool"
      },
      "t_mapping(t_address,t_mapping(t_address,t_uint256))": {
        "encoding": "mapping",
        "key": "t_address",
        "label": "mapping(address => mapping(address => uint256))",
        "numberOfBytes": "32",
        "value": "t_mapping(t_address,t_uint256)"
      },
      "t_mapping(t_address,t_struct(Counter)1844_storage)": {
        "encoding": "mapping",
        "key": "t_address",
        "label": "mapping(address => struct Counters.Counter)",
        "numberOfBytes": "32",
        "value": "t_struct(Counter)1844_storage"
      },
      "t_mapping(t_address,t_uint256)": {
        "encoding": "mapping",
        "key": "t_address",
        "label": "mapping(address => uint256)",
        "numberOfBytes": "32",
        "value": "t_uint256"
      },
      "t_mapping(t_bytes32,t_struct(RoleData)19_storage)": {
        "encoding": "mapping",
        "key": "t_bytes32",
        "label": "mapping(bytes32 => struct AccessControl.RoleData)",
        "numberOfBytes": "32",
        "value": "t_struct(RoleData)19_storage"
      },
      "t_string_storage": {
        "encoding": "bytes",
        "label": "string",
        "numberOfBytes": "32"
      },
      "t_struct(Counter)1844_storage": {
        "encoding": "inplace",
        "label": "struct Counters.Counter",
        "members": [
          {
            "astId": 1843,
            "contract": "contracts/Peronio.sol:Peronio",
            "label": "_value",
            "offset": 0,
            "slot": "0",
            "type": "t_uint256"
          }
        ],
        "numberOfBytes": "32"
      },
      "t_struct(RoleData)19_storage": {
        "encoding": "inplace",
        "label": "struct AccessControl.RoleData",
        "members": [
          {
            "astId": 16,
            "contract": "contracts/Peronio.sol:Peronio",
            "label": "members",
            "offset": 0,
            "slot": "0",
            "type": "t_mapping(t_address,t_bool)"
          },
          {
            "astId": 18,
            "contract": "contracts/Peronio.sol:Peronio",
            "label": "adminRole",
            "offset": 0,
            "slot": "1",
            "type": "t_bytes32"
          }
        ],
        "numberOfBytes": "64"
      },
      "t_uint256": {
        "encoding": "inplace",
        "label": "uint256",
        "numberOfBytes": "32"
      }
    }
  }
}